:020000040800F2
:10000000202F0020290200089D2A0008372500081B
:10001000992A00080B050008F535000800000000CB
:10002000000000000000000000000000D12C0008CB
:100030000F06000800000000092C0008D32C00085F
:10004000430200084302000843020008430200087C
:1000500043020008430200081106000837060008A2
:10006000430200084302000843020008430200085C
:10007000430200084302000843020008430200084C
:10008000430200084302000843020008430200083C
:10009000430200084302000843020008430200082C
:1000A000430200084302000843020008430200081C
:1000B000430200084302000843020008430200080C
:1000C00043020008430200084302000843020008FC
:1000D00043020008430200084302000843020008EC
:1000E0001B06000843020008430200084302000800
:1000F00043020008430200084302000843020008CC
:1001000043020008430200084302000843020008BB
:1001100043020008430200084302000843020008AB
:1001200043020008110500084302000843020008CA
:10013000430200084302000843020008430200088B
:10014000430200084302000843020008430200087B
:100150004302000821050008430200088935000811
:10016000430200084302000843020008430200085B
:100170004302000843020008430200080000000098
:10018000430200084302000800F002F800F03CF8C7
:100190000AA090E8000C82448344AAF10107DA45E2
:1001A00001D100F031F8AFF2090EBAE80F0013F0F8
:1001B000010F18BFFB1A43F0010318475C41000010
:1001C0007C410000103A24BF78C878C1FAD85207A1
:1001D00024BF30C830C144BF04680C6070470000C1
:1001E0000023002400250026103A28BF78C1FBD840
:1001F000520728BF30C148BF0B6070471FB503F0DE
:10020000EFFE1FBD10B510BD00F046F91146FFF717
:10021000F5FF03F037FA00F064F903B4FFF7F2FFDB
:1002200003BC00F06BF9000009488047094800470B
:10023000FEE7FEE7FEE7FEE7FEE7FEE7FEE7FEE796
:10024000FEE7FEE704480549054A064B70470000F3
:10025000912D00088901000820290020202F00206E
:10026000202B0020202B002053EA020C00F0698094
:100270002DE9F04B4FF00006002B1FBFB3FA83F5BA
:1002800003FA05F424FA05F65E4012BF1643B2FAEB
:1002900082F502FA05F4C5F120051EBF22FA05FC1D
:1002A00044EA0C04203556EA044C4FEA144418BFC3
:1002B000641C4FF000084FF00009904271EB030CF2
:1002C00039D3002919BFB1FA81F701FA07F6B0FA5C
:1002D00080F700FA07F6C7F120071EBF20FA07FCD7
:1002E00046EA0C062037B6FBF4FCA7EB0507103FE7
:1002F00007F01F0BCBF120060CFA0BFB2CFA06F6CD
:1003000044BFB3460026202FA4BF5E464FF0000B2B
:100310005BEA060C08BF4FF0010B19EB0B09ABFBB6
:10032000027C48EB0608C01B06FB02CC0BFB03CC8F
:1003300071EB0C01C1E70B46024641464846BDE859
:10034000F08B13B54FF000004FF00001AFF30080C9
:10035000BDE81C407047032A40F2308010F0030CC7
:1003600000F0158011F8013BBCF1020F624498BF08
:1003700011F801CB00F8013B38BF11F8013BA2F1A5
:10038000040298BF00F801CB38BF00F8013B11F020
:10039000030300F04F80083AC0F0088051F8043B96
:1003A000083A51F804CBA0E80810F5E7121D5CBF2D
:1003B00051F8043B40F8043BAFF30080D20724BF60
:1003C00011F8013B11F801CB48BF11F8012B24BFF4
:1003D00000F8013B00F801CB48BF00F8012B704743
:1003E0004FF0000200B5134694469646203922BFCE
:1003F000A0E80C50A0E80C50B1F12001BFF4F7AF19
:10040000090728BFA0E80C5048BF0CC05DF804EBFA
:10041000890028BF40F8042B08BF704748BF20F868
:10042000022B11F0804F18BF00F8012B7047704766
:100430007047704710B5203AC0F00B80B1E81850F3
:10044000203AA0E81850B1E81850A0E81850BFF4BE
:10045000F5AF5FEA027C24BFB1E81850A0E818505D
:1004600044BF18C918C0BDE810405FEA827C24BFB1
:1004700051F8043B40F8043B08BF7047D20728BF3F
:1004800031F8023B48BF11F8012B28BF20F8023B8E
:1004900048BF00F8012B7047754600F02BF8AE46B8
:1004A00005006946534620F00700854618B020B580
:1004B000FFF7C8FEBDE820404FF000064FF00007F0
:1004C0004FF000084FF0000B21F00701AC46ACE8FC
:1004D000C009ACE8C009ACE8C009ACE8C0098D4669
:1004E000704710B50446AFF300802046BDE81040C9
:1004F000FFF793BE00487047C0280020014918202C
:10050000ABBEFEE726000200704700BFFEE700001A
:1005100010B5024800F02AF910BD000000280020A4
:1005200010B5024800F022F910BD0000602800203C
:100530000146087810381823B0FBF3F20848805CB5
:10054000C865032A05D908686FF30900001D88658E
:1005500003E008686FF309008865886D7047000044
:10056000F8420008014600208A6A8B69CBB932B193
:10057000012A0DD0022A03D0032A10D10EE000BFB9
:10058000CB6A03F08073B3F1807F00D1012007E0D4
:10059000CB6AB3F1C07F00D1012001E000E000BFD1
:1005A00034E08B69B3F5005F1AD132B1012A07D06C
:1005B000022A03D0032A11D10AE000BF01200EE075
:1005C000CB6A03F08073B3F1807F00D1012006E095
:1005D000CB6AB3F1C07F00D1012000E000BF15E07D
:1005E00032B1012A05D0022A04D0032A0CD103E03B
:1005F00000BF00BF012008E0CB6A03F08073B3F1B5
:10060000807F00D1012000E000BF00BF704770472D
:1006100010B5012000F018FB10BD10B54FF480504C
:1006200000F012FB4FF4804000F00EFB4FF400404E
:1006300000F00AFB10BD10B5022000F005FB10BD54
:1006400072B600BFFEE7000030B5034609E013F8BC
:10065000014B82EA0400C0B2054D35F8100080EA73
:100660002222081EA1F10101F1D1104630BD000087
:10067000F840000830B5034605E013F8010B80EAA6
:1006800002040448025D081EA1F10101F5D11046E3
:1006900030BD0000F53F000870B50446A56D00F0C0
:1006A000E3FB064694F83500022808D080206065F8
:1006B00000BF002084F8340000BF012070BD206816
:1006C000006820F01600216808602068406920F06A
:1006D000800021684861206C08B9A06C28B12068AE
:1006E000006820F00800216808602068006820F099
:1006F00001002168086010E000F0B6FB801B0528AF
:100700000BD920206065032084F8350000BF00204D
:1007100084F8340000BF0320D0E72068006800F0B0
:1007200001000028E8D194F85C103F208840A860C0
:10073000012084F8350000BF002084F8340000BF99
:1007400000BFBBE7014691F83500022803D08020A6
:10075000486501207047052081F835000868006869
:1007600020F001000A6810600020F3E7F8B50446A5
:10077000002000908C4800684FF41651B0FBF1F750
:10078000A56D2E6894F85C1008208840304098B120
:100790002068006800F0040070B12068006820F054
:1007A00004002168086094F85C1008208840A86064
:1007B000606D40F00100606594F85C100120884095
:1007C000304068B12068406900F0800040B194F882
:1007D0005C1001208840A860606D40F002006065F8
:1007E00094F85C1004208840304068B120680068AC
:1007F00000F0020040B194F85C1004208840A8602A
:10080000606D40F00400606594F85C101020884032
:10081000304078B32068006800F0080050B394F8C6
:100820005C1010208840A8602068006800F48020D8
:1008300080B12068006800F4002028B9206CC8B19D
:100840002046216C884715E0A06C98B12046A16C29
:1008500088470FE02068006800F4807028B920689D
:10086000006820F0080021680860206C10B1204664
:10087000216C884794F85C10202088403040002884
:1008800065D02068006800F0100000285FD094F860
:100890005C1020208840A86094F83500052828D1F5
:1008A0002068006820F01600216808602068406910
:1008B00020F0800021684861206C08B9A06C28B144
:1008C0002068006820F008002168086094F85C1037
:1008D0003F208840A860012084F8350000BF002038
:1008E00084F8340000BF206D10B12046216D884788
:1008F000F8BD2068006800F4802080B1206800689E
:1009000000F4002028B9606C10B12046616C884763
:100910001DE0E06BD8B12046E16B884717E0206806
:10092000006800F4807068B92068006820F010004A
:1009300021680860012084F8350000BF002084F899
:10094000340000BFE06B10B12046E16B8847606D5A
:1009500038B3606D00F00100F0B1052084F8350077
:100960002068006820F001002168086000BF00983E
:10097000401C0090B84200D905E02068006800F0F3
:1009800001000028F3D100BF012084F8350000BF2A
:10099000002084F8340000BFE06C10B12046E16C08
:1009A000884700BFA4E700004C0000202DE9F0417B
:1009B0000446002500F058FA074614B90120BDE8A6
:1009C000F081606A00B100BF022084F8350000BFEA
:1009D000002084F8340000BF2068006820F0010087
:1009E000216808600AE000F03FFAC01B052805D91D
:1009F00020206065032084F83500E0E72068006867
:100A000000F001000028EED120680568214805406B
:100A1000D4E901010843E168084321690843616999
:100A20000843A1690843E1690843216A0843054373
:100A3000606A042803D1D4E90B0108430543206808
:100A400005602068456925F00705606A0543606A0E
:100A500004280DD1A06A0543E06A48B12046FFF79B
:100A600081FD28B140206065012084F83500A6E7AB
:100A7000206845612046FFF75BFD064694F85C1050
:100A80003F208840B06000206065012084F8350078
:100A9000002094E73F8010F070B50446B4F5805F05
:100AA00028D14FF480515C4800F0D6F9012809D1D3
:100AB0005A48007830B95A4800F0B4FF012057492D
:100AC000087017E04FF48051534800F0C5F988B919
:100AD0005248007870B152480068406A4F494860F7
:100AE00000204F49096848624D4800F0E9FF0020A6
:100AF0004A490870B4F5004F28D14FF400414648E8
:100B000000F0AAF9012809D14648007830B94648D2
:100B100000F088FF01204349087017E04FF40041BE
:100B20003D4800F099F988B93E48007870B13E48D8
:100B30000068406A3B49486000203B4909684862B8
:100B4000394800F0BDFF002036490870B4F5804FE9
:100B500028D14FF48041304800F07EF9012809D1B6
:100B60003248007830B9324800F05CFF01202F494C
:100B7000087017E04FF48041274800F06DF988B9FC
:100B80002A48007870B12A480068406A27494860BE
:100B90000020274909684862254800F091FF00209D
:100BA00022490870022C26D10221224800F054F973
:100BB000012809D12048007830B9204800F032FFE0
:100BC00001201D49087016E002211A4800F044F97E
:100BD00088B91948007870B118480068406A164909
:100BE00048600020154909684862144800F068FF11
:100BF000002011490870012C0DD100F035F905468F
:100C00000F480068281A322804D90D4805600120D1
:100C10000C49087000BF70BD0004024098210020FC
:100C2000A0220020A4210020E8220020B0210020E2
:100C30003023002000140240BC210020102200209C
:100C40003C0000200C00002010B504460448006859
:100C5000204020B1024804602046FFF71DFF10BD70
:100C6000143C0140F8B502460B4600250024002044
:100C70000021D6E0012606FA01F51E6806EA050401
:100C8000AC4274D11E7906F00306012E04D01E7901
:100C900006F00306022E13D190684F000326BE40D3
:100CA000B0434F00DE68BE4030439060506801267C
:100CB0008E40B0431E79C6F300168E40304350601C
:100CC0001E7906F00306032E09D0D0684F000326D4
:100CD000BE40B0434F009E68BE403043D0601E7996
:100CE00006F00306022E13D1CF0802F1200656F8B3
:100CF00027004E07F70E0F26BE40B0434F07FF0EEA
:100D00001E69BE403043CF0802F1200646F8270096
:100D100010684F000326BE40B0431E7906F003065C
:100D20004F00BE40304310605E6806F44036002E2F
:100D300076D000BF002600963C4E366846F48046CA
:100D40003A4F3E603E46366806F48046009600BF45
:100D500000BF374E8F0856F827008E07370F0F2633
:100D6000BE40B043334EB24202D1002624E057E0E9
:100D7000314EB24201D101261EE0304EB24201D1C5
:100D8000022619E02E4EB24201D1032614E02D4E68
:100D9000B24201D104260FE02B4EB24201D105260A
:100DA0000AE02A4EB24201D1062605E0284EB242A0
:100DB00001D1072600E008268F073F0FBE403043D1
:100DC0001B4E8F0846F82700224E3068A0435E680D
:100DD00006F4801606B120431E4E3060361D306882
:100DE000A0435E6806F4001606B12043194E361D76
:100DF0003060184E361F3068A0435E6806F4003637
:100E000006B12043134E361F3060361F3068A043B2
:100E10005E6806F4803606B120430E4E083E306010
:100E2000491C1029FFF426AFF8BD000044380240E9
:100E3000083801400000024000040240000802405F
:100E4000000C024000100240001402400018024052
:100E5000001C0240083C0140024613690B400BB1E4
:100E6000012000E000207047014800687047000042
:100E700040000020034800680349097808440149FC
:100E800008607047400000204800002010B50D4861
:100E9000006840F400700B4908600846006840F4A0
:100EA000806008600846006840F480700860032095
:100EB00000F0A2F80F2000F007F800F02BF8002057
:100EC00010BD0000003C024070B504460E4800789A
:100ED0004FF47A71B1FBF0F00C490968B1FBF0F501
:100EE000284600F02BFC08B1012070BD102C07D261
:100EF00000222146501E00F041F80548046001E040
:100F00000120F2E70020F0E7480000204C0000201C
:100F10004400002008B500BF002000900E48006883
:100F200040F480400C4908600846006800F48040A6
:100F3000009000BF00BF00BF00200090081F0068A5
:100F400040F08050091F08600846006800F080509B
:100F5000009000BF00BF08BD44380240014608466B
:100F6000002809DB00F01F0301229A4043099B007F
:100F700003F1E023C3F8002100BF70472DE9F05FC3
:100F800080460D461646002702F060FB07463946AC
:100F90002A46334601F00700C0F1070ABAF1040FF0
:100FA00002D94FF0040A01E0C0F1070AD14600F16E
:100FB000040ABAF1070F02D24FF0000A01E0A0F1D3
:100FC000030AD4464FF0010A0AFA09FAAAF1010A03
:100FD0000AEA020A0AFA0CFA4FF0010B0BFA0CFBB0
:100FE000ABF1010B0BEA030B4AEA0B042146404626
:100FF00002F034FBBDE8F09F00BF00F00702064B93
:1010000019684FF6FF031940044B0B4343EA0221D2
:10101000014B196000BF70470CED00E00000FA05BD
:1010200070B504460D460CB9012070BD58480068E3
:1010300000F00700A84209D255490D700846006823
:1010400000F00700A84201D00120EEE7207800F070
:10105000020002281DD1207800F00400042805D1E8
:101060004C48006840F4E0504A490860207800F09D
:101070000800082805D14748006840F46040454909
:1010800008604448006820F0F000A1680843414926
:101090000860207800F00100A8B36068012807D13B
:1010A0003C4808380068C0F34040B8B90120BCE7AC
:1010B0006068022802D06068032807D135480838E4
:1010C0000068C0F3406048B90120AEE731480838F5
:1010D0000068C0F3400008B90120A6E72D48006869
:1010E00020F00300616808432A490860FFF7BCFE4E
:1010F000064609E0FFF7B8FE801B41F288318842BE
:1011000002D9032091E707E02248006800F00C00B4
:101110006168B0EB810FEDD11D48006800F0070059
:10112000A84209D91A490D700846006800F0070066
:10113000A84201D0012078E7207800F004000428BC
:1011400007D11448006820F4E050E16808431149D1
:101150000860207800F00800082808D10D480068D1
:1011600020F46040216940EAC1000A49086000F0AB
:101170003FF808490968C1F30311074A515CC840A8
:101180000649086006480068FFF79EFE00204CE70D
:10119000003C024008380240004300084C00002098
:1011A0004400002001480068704700004C00002007
:1011B00000B5FFF7F7FF04490968C1F38221034A2C
:1011C000515CC84000BD00000838024010430008D0
:1011D00000B5FFF7E7FF04490968C1F34231034A4C
:1011E000515CC84000BD00000838024010430008B0
:1011F0002DE9F047002400250026A1462548006877
:1012000000F00C0020B1042805D008283AD105E0F0
:10121000DFF8849039E0DFF8849036E01D48001F45
:10122000006800F03F041B48001F006800F48000C5
:1012300078B11A481749091F0968C1F38811A0FB42
:1012400001700146224600233846FFF70DF8054697
:101250000EE011480F49091F0968C1F38811A0FB6E
:1012600001700146224600233846FEF7FDFF054681
:101270000848001F0068C0F30140401C4600B5FB51
:10128000F6F902E0DFF8109000BF00BF4846BDE865
:10129000F0870000083802400024F400001BB7006B
:1012A000F8B504460CB90120F8BD207800F0010023
:1012B000002874D0F948006800F00C0004280DD014
:1012C000F648006800F00C00082813D1F348001F0E
:1012D000006800F48000B0F5800F0BD1EF480838AB
:1012E0000068C0F34040002859D06068002856D1FB
:1012F0000120D9E700BF6068B0F5803F08D1E7481A
:101300000838006840F48030E449083908601EE07D
:101310006068B0F5A02F0DD1E0480838006840F4AF
:101320008020DE49083908600846006840F48030B3
:1013300008600CE0D9480838006820F48030D749AC
:10134000083908600846006820F48020086000BF63
:10135000606890B1FFF788FD054606E0FFF784FD61
:10136000401B642801D903209EE7CC480838006858
:10137000C0F340400028F1D011E0FFF775FD0546AD
:1013800006E0FFF771FD401B642801D903208BE7BD
:10139000C24808380068C0F340400028F1D12078E6
:1013A00000F0020002285FD1BC48006800F00C0089
:1013B00058B1BA48006800F00C0008281CD1B748A2
:1013C000001F006800F48000B0B9B4480838006815
:1013D000C0F3400020B1E068012801D0012063E79C
:1013E000AE480838006820F0F800216940EAC100E2
:1013F000AA490839086037E0E06800B30120A8492D
:101400000860FFF731FD054606E0FFF72DFD401BA4
:10141000022801D9032047E7A04808380068C0F334
:1014200040000028F1D09D480838006820F0F800FE
:10143000216940EAC10099490839086014E0002098
:1014400097490860FFF710FD054606E0FFF70CFD21
:10145000401B022801D9032026E79048083800687D
:10146000C0F340000028F1D1207800F008000828DF
:101470002CD16069A8B101208A490860FFF7F4FC0B
:10148000054606E0FFF7F0FC401B022801D90320C7
:101490000AE782486C300068C0F340000028F1D0B1
:1014A00014E000207F490860FFF7DEFC054606E0F7
:1014B000FFF7DAFC401B022801D90320F4E6774845
:1014C0006C300068C0F340000028F1D1207800F0B3
:1014D0000400042870D1002770483830006800F0FC
:1014E000805090B900BF002000906C4838300068F0
:1014F00040F080506949383108600846006800F0C3
:101500008050009000BF00BF01276748006800F4CA
:101510008070B0B96448006840F480706249086027
:10152000FFF7A2FC054606E0FFF79EFC401B0228E1
:1015300001D90320B8E65C48006800F480700028F8
:10154000F2D000BFA068012808D154486830006874
:1015500040F001005149683108601DE0A06805288D
:101560000DD14E486830006840F004004B496831A6
:1015700008600846006840F0010008600CE0474839
:101580006830006820F0010044496831086008466E
:10159000006820F00400086000BFA068A8B1FFF751
:1015A00063FC054609E0FFF75FFC401B41F2883110
:1015B000884202D9032077E626E038486830006880
:1015C000C0F340000028EED013E0FFF74DFC0546C5
:1015D00008E0FFF749FC401B41F28831884201D9FD
:1015E000032061E62D4868300068C0F34000002801
:1015F000EFD1012F07D129483830006820F0805002
:1016000026493831086000BFA069002845D023482A
:10161000006800F00C0008285DD0A069022845D1C0
:1016200000201F490866FFF71FFC054606E0FFF78C
:101630001BFC401B022801D9032035E61748083857
:101640000068C0F340600028F1D1D4E907010843E5
:10165000616A40EA81110122A06AC2EB500041EAAE
:1016600000412C20005D41EA00600C49091F086020
:1016700001200B490866FFF7F7FB054606E0FFF778
:10168000F3FB401B022801D903200DE6034808386C
:101690000068C0F340600028F1D049E008380240FB
:1016A00000004742800E4742007000400020214960
:1016B0000866FFF7D9FB054606E0FFF7D5FB401BA0
:1016C000022801D90320EFE51B480068C0F3406001
:1016D0000028F2D12CE0A069012800D1E4E51648E9
:1016E000001D0668A069012820D006F48001E06989
:1016F00081421BD106F03F01206A814216D147F694
:10170000C0703040616AB0EB811F0FD106F44031E8
:101710000122A06AC2EB5000B1EB004F06D106F0E7
:1017200070612C20005DB1EB006F01D00120BBE5A2
:101730000020B9E5000047420038024070B5044679
:101740002546681EB0F1807F01D301200FE0681E9E
:101750004FF0E02148610F214FF0FF3001F07EFF94
:1017600000204FF0E021886107200861002070BD53
:1017700010B50346002200BF93F83C00012801D1B8
:10178000022010BD012083F83C0000BF22F0FF00C2
:10179000CC6840EA040222F440708C6840EA0402FB
:1017A00022F480604C6840EA040222F400600C6875
:1017B00040EA040222F480500C6940EA040222F458
:1017C00000504C6940EA040222F48040CC6940EAAF
:1017D00004021868426400BF002083F83C0000BF88
:1017E00000BFCEE730B502460B4600BF92F83C0082
:1017F000012801D1022030BD012082F83C0000BF49
:10180000022082F83D00106844681068816824F066
:1018100070041868044310684460184D1068A842AA
:101820001BD01068B0F1804F17D0154D1068A8423A
:1018300013D0144D1068A8420FD0134D1068A84261
:101840000BD0124D1068A84207D0114D1068A84265
:1018500003D0104D1068A84205D121F080015868CE
:10186000014310688160012082F83D0000BF002024
:1018700082F83C0000BF00BFBDE70000000001404F
:101880000004004000080040000C0040000401403B
:10189000004001400018004010B504460CB901207A
:1018A00010BD94F83D0028B9002084F83C00204683
:1018B00000F026F8022084F83D00211D206801F088
:1018C00071FA012084F8460000BF84F83E0001212F
:1018D0003F200155402001554120015500BF00BF68
:1018E000012084F842004320015544200155452041
:1018F000015500BF012084F83D000020D0E7000022
:1019000008B5414A016891420FD100BF0021009102
:101910003E49096841F001013C4A116011460968DD
:1019200001F00101009100BF6DE0394A0168914268
:1019300011D100BF002100913449091F096841F00D
:101940000201324A121F11601146096801F00201BA
:10195000009100BF57E02F4A0168914211D100BFAA
:10196000002100912949091F096841F00401274A13
:10197000121F11601146096801F00401009100BFB7
:1019800041E0254A0168914211D100BF0021009138
:101990001E49091F096841F008011C4A121F116005
:1019A0001146096801F00801009100BF2BE01B4AB5
:1019B0000168914211D100BF002100911349091F14
:1019C000096841F01001114A121F1160114609689F
:1019D00001F01001009100BF15E0114A0168914229
:1019E00011D100BF002100910849091F096841F089
:1019F0002001064A121F11601146096801F02001FA
:101A0000009100BF00BF08BD000001404438024003
:101A10000004004000080040000C0040001000409E
:101A200000140040014691F83D00012801D001203A
:101A30007047022081F83D001A4B086898421BD07D
:101A40000868B0F1804F17D0174B0868984213D040
:101A5000164B086898420FD0154B086898420BD077
:101A6000144B0868984207D0134B0868984203D07B
:101A7000124B086898420CD10868806800F0070291
:101A8000062A0CD00868006840F001000B68186056
:101A900005E00868006840F001000B68186000204D
:101AA000C6E70000000001400004004000080040BC
:101AB000000C0040000401400040014000180040BC
:101AC000014600BF0868006A41F21112104050B987
:101AD0000868006A9210104028B90868006820F071
:101AE00001000A68106000BF012081F83D0000205D
:101AF00070472DE9F04104460D46002700BF94F8D9
:101B00003C00012802D10220BDE8F081012084F8C8
:101B10003C0000BF022084F83D002068866826F063
:101B2000770626F47F46206886602868502833D0E0
:101B30000CDC202850D004DC00284BD0102851D1D8
:101B400049E0302849D040284CD139E060282DD0D8
:101B5000702807D0B0F5805F03D0B0F5005F41D1A9
:101B60000DE041E0D5E902136A68206801F097F9B9
:101B70002068866846F077062068866034E0D5E9FC
:101B800002136A68206801F08AF92068806840F4CE
:101B900080402168886027E0EA686968206801F071
:101BA0006FFA5021206801F085F91DE0EA68696844
:101BB000206801F078FA6021206801F07BF913E0D9
:101BC000EA686968206801F05BFA4021206801F04A
:101BD00071F909E000BF00BF00BF2968206801F06B
:101BE00069F901E0012700BF00BF012084F83D0032
:101BF00000BF002084F83C0000BF384684E70000A6
:101C000010B586B00446142101A8FEF7E9FB23496C
:101C1000206888421ED100BF002000902048006844
:101C200040F010001E4908600846006800F01000EF
:101C3000009000BF00BF4FF4D440019002200290FA
:101C40000020039004900120059001A91548FFF79A
:101C500009F821E01449206888421DD100BF002006
:101C600000900F48006840F008000D4908600846E1
:101C7000006800F00800009000BF00BF4FF48040F3
:101C80000190022002900020039004900220059011
:101C900001A90648FEF7E6FF06B010BD00000140AE
:101CA000303802400010024000080040000C0240A2
:101CB0002DE9F04104460D461646002700BF94F872
:101CC0003C00012802D10220BDE8F081012084F807
:101CD0003C0000BF36B1042E1BD0082E31D00C2E94
:101CE0005ED145E02946206801F0EEF82068806961
:101CF00040F00800216888612068806920F00400B5
:101D000021688861206880692969084321688861A1
:101D100048E02946206801F00FF92068806940F406
:101D20000060216888612068806920F480602168F3
:101D3000886120688069296940EA012021688861FA
:101D400030E02946206801F035F92068C06940F08C
:101D500008002168C8612068C06920F0040021687B
:101D6000C8612068C069296908432168C86119E011
:101D70002946206801F05AF92068C06940F40060E3
:101D80002168C8612068C06920F480602168C8614A
:101D90002068C069296940EA01202168C86101E022
:101DA000012700BF00BF00BF002084F83C0000BF37
:101DB000384689E710B504460CB9012010BD94F8E7
:101DC0003D0028B9002084F83C00204600F025F8AA
:101DD000022084F83D00211D206800F0E3FF01206F
:101DE00084F8460000BF84F83E0001213F200155E1
:101DF000402001554120015500BF00BF012084F85B
:101E0000420043200155442001554520015500BFA3
:101E1000012084F83D000020D0E7704770B50446EB
:101E20000D4615B994F83E000BE0042D02D13F2079
:101E3000005D06E0082D02D14020005D01E0412058
:101E4000005D012801D0012070BD1DB9022084F879
:101E50003E000EE0042D03D102213F20015508E091
:101E6000082D03D102214020015502E0022141202A
:101E7000015501222946206801F000F82349206815
:101E8000884203D022492068884201D1012000E025
:101E9000002028B12068406C40F40040216848646C
:101EA0001A49206888421BD02068B0F1804F17D0B3
:101EB00018492068884213D01749206888420FD0FB
:101EC0001649206888420BD011492068884207D003
:101ED00013492068884203D01249206888420CD1F7
:101EE0002068806800F00706062E0CD02068006885
:101EF00040F001002168086005E02068006840F0BB
:101F000001002168086000209EE7000000000140F9
:101F1000000401400004004000080040000C0040A4
:101F20000040014000180040704770472DE9F84F0D
:101F30000446206805682068C668206847694FF035
:101F40000009CA4605F00F09B9F1000F0AD105F0E2
:101F5000200038B106F0200020B1204601F007F93A
:101F6000BDE8F88FB9F1000F7CD007F0010018B977
:101F700006F49070002875D005F0010030B106F429
:101F8000807018B1206C40F00100206405F004005E
:101F900030B107F0010018B1206C40F0020020645D
:101FA00005F0020030B107F0010018B1206C40F0DC
:101FB0000400206405F0080048B106F0200010B9C4
:101FC00007F0010018B1206C40F008002064206C7C
:101FD000002846D005F0200028B106F0200010B1FE
:101FE000204601F0C4F820684069C0F3801A206CD4
:101FF00000F0080010B9BAF1000F2DD0204601F012
:1020000070F82068406900F04000402820D100BFEF
:1020100000BF2168143151E8001F21F04000216801
:10202000143141E80002002AF3D100BFA06B50B187
:102030007548A16B0865A06BFEF784FB88B1A06BA7
:10204000016D88470DE02046FFF76FFF09E009E0CA
:102050002046FFF76AFF04E02046FFF766FF0020F6
:1020600020647DE7206B012876D105F01000002860
:1020700072D006F010000028FAD000BF00200090B7
:1020800020680068009020684068009000BF00BF92
:102090002068406900F0400040285ED1A06B0068D5
:1020A00040681FFA80F8B8F1000F54D0A08D404569
:1020B00051DDA4F82E80A06BC069B0F5807F43D0BD
:1020C00000BF00BF21680C3151E8001F21F480706F
:1020D00021680C3141E80002002AF3D100BF00BFA3
:1020E00000BF2168143151E8001F21F00100216870
:1020F000143141E80002002AF3D100BF00BF00BF45
:102100002168143151E8001F21F04000216814318A
:1021100041E80002002AF3D100BF202084F83E00ED
:102120000020206300BF00BF21680C3151E8001F70
:1021300021F0100021680C3141E80002002AF3D19F
:1021400000BFA06BFEF7A8FAA08DE28D801A81B2C5
:102150002046FFF7E9FE03E740E0A08DE18D401A3D
:102160001FFA80F8E08DC0B3B8F1000F35D000BF82
:1021700000BF21680C3151E8001F21F490702168E4
:102180000C3141E80002002AF3D100BF00BF00BFBC
:102190002168143151E8001F21F001002168143139
:1021A00041E80002002AF3D100BF202084F83E005D
:1021B0000020206300BF00BF21680C3151E8001FE0
:1021C00021F0100021680C3141E80002002AF3D10F
:1021D00000BF41462046FFF7A7FEC1E605F080009C
:1021E00030B106F0800018B1204601F053F9B7E68F
:1021F00005F0400030B106F0400018B1204600F074
:10220000A6FFADE600BFABE6CF30000810B5044630
:102210000CB9012010BDA06900B100E000BF94F826
:102220003D0028B9002084F83C00204600F028F842
:10223000242084F83D002068C06820F40050216804
:10224000C860204601F010F82068006920F4904032
:10225000216808612068406920F02A0021684861EF
:102260002068C06840F400502168C86000202064E5
:10227000202084F83D0084F83E000020CAE70000DA
:1022800010B586B00446142101A8FEF7A9F86B49E1
:10229000206888424ED100BF002000906848006846
:1022A00040F01000664908600846006800F0100021
:1022B000009000BF00BF00BF0020009060481438AD
:1022C000006840F002005E49143908600846006862
:1022D00000F00200009000BF00BF00BF002000908F
:1022E0000846006840F0010008600846006800F0F9
:1022F0000100009000BF00BF8020019002200290EA
:1023000000200390032004900720059001A94D4868
:10231000FEF7A8FC4FF4007001900220029000200C
:102320000390032004900720059001A94648FEF77A
:1023300099FC81E04549206888427DD100BF00209A
:1023400000903F48006840F020003D490860084682
:10235000006800F02000009000BF00BF00BF002018
:10236000009037481438006840F040003449143970
:1023700008600846006800F04000009000BF00BF01
:102380004FF484400190022002900020039003202B
:1023900004900820059001A92D48FEF763FC2D4804
:1023A0002D4908608005486000212B488160C1608C
:1023B0004FF4806101610021416181614FF48071BE
:1023C000C1614FF44031016200214162FEF7EEFA33
:1023D00008B1FEF735F900BF1F48A063846300BF52
:1023E0001C4878301D4908604FF02060486040214B
:1023F0001A4881600021C1604FF4806101610021B1
:10240000416181614FF48071C1614FF440310162DB
:1024100000214162FEF7CAFA08B1FEF711F900BFC8
:102420000E486063846300BF002211464720FEF718
:10243000A5FD4720FEF792FD06B010BD001001403B
:1024400044380240000402400000024000140140F1
:102450000018024028640240002800206028002064
:1024600070472DE9F84F04460E46174699464FF03F
:10247000000A94F83D0020285AD106B117B901206E
:10248000BDE8F88F00BF94F83C00012801D102207C
:10249000F6E7012084F83C0000BF002020642120E2
:1024A00084F83D00FEF7E0FC8246A784E784A0683C
:1024B000B0F5805F04D1206910B90025B04602E074
:1024C00035464FF0000800BF002084F83C0000BFF4
:1024D0001BE05346002280212046CDF8009001F0F9
:1024E00009F808B10320CBE745B9B8F80000C0F3FC
:1024F00008002168486008F1020803E02878216894
:1025000048606D1CE08C401EE084E08C0028E0D127
:102510005346002240212046CDF8009000F0EAFF0B
:1025200008B10320ACE7202084F83D000020A7E795
:102530000220A5E7704700BFFEE7000008B500BF16
:10254000002000900E48006840F480000C490860AC
:102550000846006800F48000009000BF00BF002221
:1025600011463920FEF70AFD3920FEF7F7FC00225C
:1025700011464520FEF702FD4520FEF7EFFC08BDA1
:102580003038024000B587B0142102A8FDF728FFBB
:1025900000BF002001905848006840F040005649B4
:1025A00008600846006800F04000019000BF00BFCE
:1025B00000BF002001900846006840F0010008605C
:1025C0000846006800F00100019000BF00BF00BF96
:1025D000002001900846006840F08000086008462E
:1025E000006800F08000019000BF00BF00BF002025
:1025F00001900846006840F0200008600846006826
:1026000000F02000019000BF00BF00BF002001903B
:102610000846006840F0080008600846006800F0BE
:102620000800019000BF00BF00BF002001900846D5
:10263000006840F0100008600846006800F01000D4
:10264000019000BF00BF00BF002001900846006855
:1026500040F0020008600846006800F002000190A7
:1026600000BF00BF48150290022003900020049094
:10267000032005900720069002A92048FEF7F2FAF1
:10268000022002904FF4441003900120049002A90C
:102690001B48FEF7E7FA012002904FF40410039064
:1026A0000120049002A91548FEF7DCFA4FF45040CF
:1026B00002904FF4441003900120049002A91148A5
:1026C000FEF7D0FA002211460620FEF757FC06203E
:1026D000FEF744FC002201210720FEF74FFC0720F3
:1026E000FEF73CFC002201212820FEF747FC2820B1
:1026F000FEF734FC07B000BD303802400000024055
:10270000001402400004024000B595B00020119072
:102710001290139014900F9010901C2108A8FDF7B0
:102720005FFE20216846FDF75BFE384838490860A7
:1027300040F28F6048600021354881604FF4FA61B3
:10274000C1600021016141618161FFF7A5F808B115
:10275000FDF776FF4FF48050119011A92C48FFF738
:10276000C8F908B1FDF76CFF2948FFF723FB08B152
:10277000FDF766FF00200F9010900FA92448FFF787
:1027800031F808B1FDF75CFF602008900320099044
:1027900000200A900B900C900D900E90002208A93A
:1027A0001B48FFF785FA08B1FDF74AFF042208A984
:1027B0001748FFF77DFA08B1FDF742FF082208A984
:1027C0001348FFF775FA08B1FDF73AFF0C2208A984
:1027D0000F48FFF76DFA08B1FDF732FF00200090B7
:1027E00001900290039004904FF400500590002057
:1027F000079069460648FEF7BBFF08B1FDF720FFCA
:102800000348FFF7FDF915B000BD000000000140CE
:10281000C821002000B587B00020039004900590E7
:1028200006900190029014481449086053204860B3
:102830000021124881604FF6FF71C16000210161E3
:102840008161FFF729F808B1FDF7FAFE4FF48050D7
:10285000039003A90948FFF74CF908B1FDF7F0FE12
:1028600000200190029001A90448FEF7BBFF08B1C7
:10287000FDF7E6FE07B000BD000400401022002076
:1028800000B58DB0002009900A900B900C90079035
:1028900008901C216846FDF7A3FD204820490860E8
:1028A0000020486000211E4881604AF21041C1604A
:1028B000002101618161FEF7EFFF08B1FDF7C0FE65
:1028C0004FF48050099009A91548FFF712F908B193
:1028D000FDF7B6FE1248FFF76DFA08B1FDF7B0FE3E
:1028E00000200790089007A90D48FEF77BFF08B16C
:1028F000FDF7A6FE60200090002001900290049059
:10290000082269460648FFF7D3F908B1FDF798FE9B
:102910000348FFF775F90DB000BD00000008004046
:102920005822002000B587B0002003900490059045
:1029300006900190029014481449086053204860A2
:10294000002112488160491EC1600021016181613E
:10295000FEF7A2FF08B1FDF773FE4FF4805003901D
:1029600003A90A48FFF7C5F808B1FDF769FE002082
:102970000190029001A90548FEF734FF08B1FDF768
:102980005FFE07B000BD0000000C0040A022002048
:102990001CB50020009001900E480F49086053209C
:1029A000486000210C4881604FF6FF71C160002132
:1029B0008161FEF771FF08B1FDF742FE0020009033
:1029C000019069460448FEF70DFF08B1FDF738FE97
:1029D0001CBD000000100040E82200201CB50020B3
:1029E000009001900E480F49086053204860002174
:1029F0000C4881604FF6FF71C16000218161FEF7D4
:102A00004BFF08B1FDF71CFE0020009001906946C5
:102A10000448FEF7E7FE08B1FDF712FE1CBD0000FA
:102A2000001400403023002010B50B480B4908600B
:102A30004FF4E1304860002108488160C1600161C5
:102A40000C21416100218161C161FFF7DFFB08B109
:102A5000FDF7F6FD10BD00000010014078270020B2
:102A600010B50B480B4908604FF4E1304860002175
:102A700008488160C16001610C21416100218161D0
:102A8000C161FFF7C3FB08B1FDF7DAFD10BD00001F
:102A900000140140BC27002000BFFEE700BFFEE796
:102AA000F0B553480078002874DD5248524909783F
:102AB00000EB812041784F484F4A127800EB82208A
:102AC000007801EB002005B24A484B49097800EB39
:102AD0008120841C79E02078A52864D1052D62DB53
:102AE0000521204600F0A0FD002854D06178A07890
:102AF00001EB002086B2E17840480078401CC0B26B
:102B0000814206D03E48D0F8D300401C3C49C1F871
:102B1000D300E0783949087006F10900854231DBBD
:102B20000146204600F068FD20B36179A07901EBF1
:102B3000002087B2B7F5807F14D1E179207A01EBCC
:102B4000002000B22F490880617AA07A01EB0020B2
:102B500000B22C494880E07A0871207B4871607B84
:102B6000887128E02648D0F8E700401C2449C1F8C5
:102B7000E70020E02248D0F8E300401C2049C1F8DB
:102B8000E30023E01E48D0F8DF00401C1C49C1F8D8
:102B9000DF001BE02BE01A48D0F8DB00401C18498E
:102BA000C1F8DB0012E01648D0F8D700401C1449E9
:102BB000C1F8D7000AE006F10900281A05B206F1AB
:102BC00009000444002D00DC00E084E700BF0A494E
:102BD0000978481CC11700EB5171C910A0EBC10165
:102BE000054A117002480078401E01490870F0BD86
:102BF0000000002050000020010000200300002001
:102C00005020002005000020704700002DE9F04111
:102C10000746884614461D46A54202DB281B86B29D
:102C200003E0601BA8EB000086B2002E47DD2548BC
:102C30000078082843DA30122349244A127801EB3D
:102C4000822108702049214A127801EB82214E70BE
:102C5000A5420ADD39191C4A1C4B1B7802EB832262
:102C6000901C3246FDF777FB19E0A8EB04023919F6
:102C7000154BDFF858C09CF800C003EB8C23981C60
:102C8000FDF769FB1049114A127801EB8221891C7A
:102C9000A8EB040288182A463946FDF75CFB0B496D
:102CA0000978481CC11700EB5171C910A0EBC10194
:102CB000064A117003480078401C02490870BDE8BC
:102CC000F0810000000000205000002002000020E1
:102CD000704710B5FEF7CEF810BD000000B593B0F8
:102CE000302107A8FDF77CFB142102A8FDF778FB33
:102CF00000BF002001902448006840F08050224925
:102D000008600846006800F08050019000BF00BFD6
:102D100000BF002001901D48006840F480401B491E
:102D200008600846006800F48040019000BF00BFC2
:102D3000012007900004089002200D9041050E919B
:102D400006210F91A82110910221119104211291C5
:102D500007A8FEF7A5FA08B1FDF772FC0F20029054
:102D600002200390002004904FF4A05005904FF4EF
:102D700080500690052102A8FEF752F908B1FDF730
:102D80005FFC13B000BD00004038024000700040FE
:102D90000348006840F47000014908607047000073
:102DA00088ED00E010B50268294B98420ED0B0F1D2
:102DB000804F0BD0274B984208D0274B984205D024
:102DC000264B984202D0264B984203D122F0700243
:102DD0004B681A431E4B984220D0B0F1804F1DD053
:102DE0001C4B98421AD01C4B984217D01B4B984250
:102DF00014D01B4B984211D01A4B98420ED01A4B4C
:102E000098420BD0194B984208D0194B984205D0E4
:102E1000184B984202D0184B984203D122F44072CA
:102E2000CB681A4322F080034C6943EA0402026033
:102E30008B68C3620B688362054B984202D0084BD3
:102E4000984201D10B6903630123436110BD000067
:102E5000000001400004004000080040000C004059
:102E6000000401400040014000440140004801408E
:102E700000180040001C00400020004030B501F068
:102E80001F05012404FA05F3046A9C430462046AE2
:102E900001F01F0502FA05F52C43046230BD30B580
:102EA0000C46816821F47F4142EA032525432943EA
:102EB000816030BD0A46816821F0700142F007034D
:102EC000194381607047000030B5056A25F001059F
:102ED0000562026A4368846924F0700424F00304E4
:102EE0000D682C4322F002028D682A43104DA8423F
:102EF00000D103E00F4DA84206D100BF22F0080226
:102F0000CD682A4322F00402094DA84202D0094D9F
:102F1000A84207D123F4807323F400734D692B4337
:102F20008D692B43436084614D684563026230BD07
:102F3000000001400004014030B5056A25F010058D
:102F40000562026A4368846924F4E04424F440740E
:102F50000D6844EA052422F020028D6842EA051239
:102F6000124DA84200D103E0114DA84207D100BF85
:102F700022F08002CD6842EA051222F040020B4D99
:102F8000A84202D00A4DA84209D123F4806323F459
:102F900000634D6943EA85038D6943EA8503436015
:102FA00084614D688563026230BD0000000001400D
:102FB0000004014030B5056A25F480750562026A97
:102FC0004368C46924F0700424F003040D682C43A2
:102FD00022F400728D6842EA0522124DA84200D107
:102FE00003E0114DA84207D100BF22F40062CD6872
:102FF00042EA052222F480620A4DA84202D00A4D1C
:10300000A84209D123F4805323F400534D6943EAC5
:1030100005138D6943EA05134360C4614D68C563B8
:10302000026230BD000001400004014030B5056A75
:1030300025F480550562036A4468C26922F4E042BF
:1030400022F440720D6842EA052223F400538D6891
:1030500043EA0533084DA84202D0084DA84204D1E6
:1030600024F480444D6944EA85144460C2614D688B
:103070000564036230BD000000000140000401400F
:1030800030B50B461446026A056A25F00105056253
:10309000816921F0F00141EA041122F00A021A4389
:1030A0008161026230BD30B50B461446056A25F0D9
:1030B000100505628169026A21F4704141EA043118
:1030C00022F0A00242EA03128161026230BD70B5B3
:1030D0000546AC6B0020E085E0842046FEF725FF26
:1030E00070BD00BF00BF02680C3252E8002F22F40E
:1030F000907102680C3242E80013002BF3D100BF3C
:1031000000BF00BF0268143252E8002F22F0010114
:103110000268143242E80013002BF3D100BF016BA8
:1031200001290ED100BF00BF02680C3252E8002F07
:1031300022F0100102680C3242E80013002BF3D198
:1031400000BF202180F83E1000210163704710B5B8
:1031500004462068C06820F040002168C860202034
:1031600084F83D002046FFF7E5F9002010BDF8B5D2
:10317000044694F83E00222873D1A068B0F5805F21
:103180000CD1206950B90025A66A20684068C0F3B8
:1031900008003080A06A801CA06215E0A56A0026A5
:1031A000A068B0F5805F03D0A06828B9206918B97D
:1031B00020684068287004E02068406800F07F00C4
:1031C0002870A06A401CA062E08D401E80B2E0859D
:1031D000002844D12068C06820F020002168C86021
:1031E0002068C06820F480702168C8602068406949
:1031F00020F0010021684861202084F83E00206B07
:10320000012826D10020206300BF00BF21680C31B7
:1032100051E8001F21F0100021680C3141E8000244
:10322000002AF3D100BF2068006800F010001028C9
:103230000AD100BF0020009020680068009020683C
:103240004068009000BF00BFA18D2046FEF76CFED5
:1032500002E02046FFF704F90020F8BD01E000205D
:10326000FBE70220F9E700002DE9F84F044620684B
:10327000006920F44050E168084321680861216931
:10328000A068084361690843E16908430090206829
:10329000C06849F20C618843009908432168C860FE
:1032A0002068406920F44070A169084321684861A2
:1032B00076492068884203D075492068884203D146
:1032C000FDF786FF814602E0FDF772FF8146E06967
:1032D000B0F5004F6CD102206168A0FB015003469D
:1032E0001920A9FB007001462A463846FCF7BCFFAE
:1032F0006421B0FBF1F04FEA001A02206168A0FBE4
:1033000001510B461920A9FB00712A463846FCF7EB
:10331000ABFF834602206168A0FB015003461920E1
:10332000A9FB00712A463846FCF79EFF6421B0FBDA
:10333000F1F000EBC00101EB0010ABEB800032219B
:1033400001EBC0006421B0FBF1F000F0F8000AEBE3
:10335000400A02206168A0FB015003461920A9FB26
:10336000007001462A463846FCF77EFF834602205D
:103370006168A0FB015003461920A9FB00712A4691
:103380003846FCF771FF6421B0FBF1F000EBC0019F
:1033900001EB0010ABEB8000322101EBC000642197
:1033A000B0FBF1F000F007005044216888606AE04B
:1033B00004206168A0FB015003461920A9FB00709E
:1033C00001462A463846FCF74FFF824604206168D2
:1033D000A0FB015003461920A9FB007001462A46B4
:1033E0003846FCF741FF6421B0FBF1F000EBC0016F
:1033F00001EB0010AAEB8000322101EB00106421E8
:10340000B0FBF1F000F0F00A04206168A0FB01704D
:1034100003461920A9FB00513A462846FCF724FF31
:103420006421B0FBF1F00AEB001A04206168A0FBF4
:1034300001510B461920A9FB00712A463846FCF7BA
:1034400013FF834604206168A0FB01500346192046
:10345000A9FB007001462A463846FCF705FF6421A7
:10346000B0FBF1F000EBC00101EB0010ABEB800012
:10347000322101EB00106421B0FBF1F000F00F00ED
:10348000504421688860BDE8F88F000000100140BA
:1034900000140140014691F83D00212828D1886898
:1034A000B0F5805F0BD1086948B90A6A1088C0F38B
:1034B00008000B685860086A801C086205E00B6A07
:1034C000581C086218780B685860C88C401E80B27F
:1034D000C88458B90868C06820F080000B68D860BC
:1034E0000868C06840F040000B68D8600020704752
:1034F0000220FCE72DE9F04104460D4617469846A8
:10350000069E34E0701C88B32EB1FDF7ADFCA0EB35
:103510000800B0422BD900BF00BF21680C3151E830
:10352000001F21F4D07021680C3141E80002002A0C
:10353000F3D100BF00BF00BF2168143151E8001F64
:1035400021F001002168143141E80002002AF3D182
:1035500000BF202084F83D0084F83E0000BF00201A
:1035600084F83C0000BF0320BDE8F081FFE720683D
:1035700000682840A84201D1012000E00020B842A4
:10358000C0D00020F0E7000008B51548FEF7CEFCDB
:1035900013480068006800F0100000B300BF00206E
:1035A00000900F480068006800900D48006840686F
:1035B000009000BF00BF0B4800880B4908800B48F3
:1035C00000684068C0F580600649088008460388A6
:1035D000054802884FF480610548FFF717FB08BDD6
:1035E000BC2700203A0000203800002000280020DE
:1035F0007823002000BFFEE770B505460C46A11EEB
:103600004FF6FF722846FDF71FF80646F1B2A01EDE
:10361000285C814206D1601E285CB0EB162F01D1D8
:10362000012070BD0020FCE770B505460C46611E08
:10363000FF222846FDF71EF80646601E285CB042B1
:1036400001D1012070BD0020FCE7000002480068A5
:10365000C0F30220704700000CED00E010B5002818
:1036600004DB0A07130E054A135406E00A07140E7A
:10367000034A00F00F031B1FD45410BD00E400E008
:1036800018ED00E02DED068BFDF700FCFFF726FBA3
:10369000FEF778FFFEF752FFFFF736F8FFF7BAF8AC
:1036A000FFF7EEF8FFF73EF9FFF772F9FFF796F92B
:1036B000FFF7BAF9FFF7D4F90021B148FEF7AEFBE6
:1036C0000421AF48FEF7AAFB0821AD48FEF7A6FB90
:1036D0000C21AB48FEF7A2FB0821AA48FEF79EFB8F
:1036E000A9480068406940F04000A749096848615E
:1036F000A5480068C06840F01000A3490968C86088
:10370000A248A34909688860A248A1490968C8601D
:103710004FF480609E49096848609D4800680068D1
:1037200040F001009A490968086027E19A4800685A
:10373000401C994908600846006842F21071B0FBCD
:10374000F1F201FB120008B9FFF7AAF9934880795A
:1037500001287DD192480068401C914908600846C4
:1037600000689049B0FBF1F201FB12000028F0D193
:103770008A48B0F900008C490988081A06D587489C
:10378000B0F9000088490988401A05E08348B0F97B
:10379000000085490988081A32287DDA7F48B0F987
:1037A000020082490988081A06D57C48B0F902004F
:1037B0007E490988401A05E07848B0F902007B4943
:1037C0000988081A32286DDA002469E0204600F0E2
:1037D0000CFA41EC1A0B9FED760B53EC102B00F01A
:1037E00017FA41EC190B9FED740B53EC102B00F002
:1037F0003DF941EC180B00F007F97149086000250C
:1038000048E0C5EB051101EB410000F0D7F99FED51
:103810006D0B53EC102B00F029F900F0F5F86B4913
:1038200008606748D0ED001A6048008801EE100A71
:10383000B8EE411A31EEC11AF0EE410A0846D0ED59
:10384000001A5948008801EE100AB8EE411A00E04B
:1038500030E031EEC11AB0EE410A00F0CDF8DFEDF4
:103860005C0AB4EEE00AF1EE10FA11D8AA20594928
:10387000087004EB44002844487048480079887078
:1038800046484079C870642304225348FEF7E9FD96
:10389000681CC5B2032D00E004E0B2DB601CC4B2BA
:1038A000042C93DB3D4800883F4908803B48408812
:1038B0003E4908804948406800EE100AB8EE400AC8
:1038C000DFED470A80EE201A9FED460A21EE000A3E
:1038D000B0EE001AC0EE010A9FED430A20EE800A06
:1038E0003E4880ED020A4148406800EE100AB8EEFA
:1038F000400ADFED3B0A80EE201A9FED3A0A21EEE6
:10390000000AF0EE000A80EE201A9FED370A21EE41
:10391000000A364880ED020A3548406800EE100A79
:10392000F8EE400A9FED2E1A80EE810ADFED2D0A97
:1039300020EE200AF0EE000A80EE201A9FED2A0AFF
:1039400021EE000A2A4880ED020A2A48406800EE6B
:10395000100AB8EE400ADFED220A80EE201A9FED31
:10396000210A61EE000AB0EE001A80EE810ADFED56
:103970001E0A20EE200A1F4880ED020AD6E600004B
:10398000C821002058220020BC2700200414014038
:1039900000280020782300201800002005000020C7
:1039A0001C00002040420F002000002022000020C8
:1039B0000000000000C047400000000000C0374089
:1039C0003000002000000000008036402C00002065
:1039D000002088442400002078270020982100201F
:1039E000002474490000AA430000C842A42100201A
:1039F000B0210020BC210020B0EE401A21EE010AC7
:103A000000EEA00A7047000021F00042A2F16052CF
:103A1000B2F5801F01F0004328BFD2F17F6C0BD9B3
:103A20005FEA001C43EAC20242EB507018BF7047C5
:103A300028BF20F001007047B2F5801FBCBF1846B8
:103A400070474FEA410C1CF5001F02D2084600F0F7
:103A5000CCBA70B500F086F900000089FFF7F6BF18
:103A60004FF00040A0F580007047000010B591EACB
:103A7000030F48BF83F0004300F1D081841A71EB3B
:103A8000030C05D2121943EB0C03001B61EB0C0174
:103A9000DFF824E14FEA1154A4EB135C1EEA430F54
:103AA00018BF9EEA445F73D023EA0E03DCF1200EB8
:103AB00021EA045143F4801332D322FA0CFE10EBB6
:103AC0000E0023FA0CFE41EB0E01CCF1200E03FA9E
:103AD0000EFE10EB0E0051F10001B1F5801FCCF18C
:103AE000200E32D201EB045112FA0EF2BDE8104062
:103AF00058BF7047401C38BF5FEA420218BF70478A
:103B0000002814BF20F0010041F100014FEA4103F9
:103B100013F5001F38BF7047A1F1C04100F070B924
:103B2000012A43EB0302ACF1200CDCF11F0E32BF83
:103B30004FF0000E23FA0CF310EB030041EB04519D
:103B4000B4EB115FD0D0A1EB045101F5801149080D
:103B50005FEA300001EB04510ED350F1000038BF92
:103B600012FA0EFE08D1BDE81040C9E7401C38BF6C
:103B70005FEA4202CAD1C3E7BDE810404FEA410301
:103B800013F5001F38BF7047A1F1C04100F038B9EC
:103B90009EEA445F08D011EA5E0FBDE8104004BF02
:103BA00001F0004100207047BDE8104070B500F002
:103BB000D9F800BF64FBBE3E0000E0FF10F00042F9
:103BC00048BF4042B0FA80F310FA03F10AD0C3F1C3
:103BD0001D0303F580634FEA415002EB035202EBF1
:103BE000D12170474FF000007047B0FA80F310FA0F
:103BF00003F10AD0C3F11D0303F580634FEA41507E
:103C00004FEA035202EBD12170474FF0000070479A
:103C1000DFF848C170B51CEA111E1EBF1CEA13155F
:103C20009EEA0C0F95EA0C0F00F06F8081EA030406
:103C300023EA4C134EEAD47E21EA4C1141F4801160
:103C400043F48013AE44A1FB024CA0FB0365AEF12C
:103C50007F7E361955EB0C05A1FB034C4CF100039C
:103C6000A0FB021C16EB0C06654153F10003094250
:103C700018BF46F0010613F4007F0BD14FEA033161
:103C80004FEA0530340341EA155140EA16506FF00F
:103C900003020AE04FEAC3214FEAC520F40241EAD9
:103CA000555140EA56506FF0020202EB2E4201EBF2
:103CB000025585EACE710AD05FEA440C18BF24F0A1
:103CC000004450F1000041F1000120EAD47040F2BC
:103CD000FE7C624500D270BDA84214BF4FF0804404
:103CE0004FF04044002E08BF0024BEF1806FA8BFF3
:103CF000A1F1C041BDE8704080F282804FF0000029
:103D000001F1C04101F0004170479EEA0C0F0CEA3E
:103D1000131518BF95EA0C0F06D04FF0000081EA8A
:103D2000030E0EF0004170BD00F01CF88900013E4A
:103D300000F007B800F009B84FEA430C5FEA5C5C9A
:103D400008D081EA030100F05BB84FEA410C5FEA5A
:103D50005C5CF6D14FF00000014970470000FF079E
:103D60000000F87F0EF1020E2EF0030E5EF8046BD9
:103D7000364205D4012A43EB030515F5001F12D87E
:103D8000012841EB010C1CF5001F0CD80ED14FEAA5
:103D9000D17C15F5001F0CEB4C0C0CF1020C08BF8C
:103DA0004CEBD37C04E04FF0080C01E04FEAD37CED
:103DB0000CEB4C0526FA05F606F00706B6F1040CE6
:103DC00006D20EEB860CBDE870404CF0010C60474B
:103DD000DFE80CF0090B02024FF000414FF0000049
:103DE000A1F5002170BD19461046012851EB0104D0
:103DF00018BFD4F5001484BF002001F0004170BD4D
:103E00000808A0F500114FEA3101704710B591EA9A
:103E1000030F48BF83F000433FF530AE841A71EBC7
:103E2000030C07D212198CF0004C43EB0C03001B5F
:103E300061EB0C01DFF8A4E14FEA1154A4EB135C31
:103E40001EEA430F18BF9EEA445F00F0B08023EAE9
:103E50006E03524221EA0451C3EB6E0338BF5B1E6E
:103E6000DCF1200E25D322FA0CFE10EB0E0043FAF3
:103E70000CFE41EB0E01CCF1200E03FA0EFE10EB0E
:103E80000E0051F10001CCF1200E29D412FA0EF2ED
:103E900001EB0451BDE8104058BF7047401C1CBFE7
:103EA000B2F1004F704700280CBF491C20F0010000
:103EB000704712EB020E43EB030218BF4FF0010EE6
:103EC0004EEA4202ACF1200CDCF11E0E54D943FA4A
:103ED0000CFE10EB0E0051F1FF31CCF11E0ED5D5CA
:103EE0000EF1010E12FA0EFE404141EB010101EB11
:103EF000445C5FEA5C5C10D910EBDE7001EB0451AE
:103F000038BFBEF1004FBDE8104018BF7047002811
:103F10000CBF491C20F00100704730D24FEAD42C6E
:103F200011F5001124F400641BD0B1FA81F20B3AB0
:103F3000A41AA41ED2F12003914030FA03F31943CE
:103F4000904001EBCC71002C01EB0451BDE8104016
:103F5000A8BF704701F1C0414FF0000001F00041DF
:103F60007047B0FA80F310FA03F100D110BDE41AE3
:103F7000173C4805C90AE4E701EB045110BD49109C
:103F800001EB0451BDE810404FEA300002E04FF071
:103F9000000170474A0008BF0042F8D0B2F5001F88
:103FA00028BF704701F000414FF0000070479EEAC3
:103FB000445F07D011EA5E0FBDE8104004BF002146
:103FC00000207047BDE8104070B5FFF7CBFE00BF82
:103FD00040DFF63E83F00041104670470000E0FFEE
:103FE0004FF04070E1EE100A7047FF2141EAD050D7
:103FF000C0057047FF005EBCE2613FDD83C29C7E6E
:1040000020A3FD1F419DC3217FFCA2401E5F01E351
:10401000BD3E6082DC237D9FC1421CFEA0E1BF5DEE
:104020000380DE3C62BEE0025CDF81633D7C22C037
:104030009E1D43A1FF4618FAA427799BC584DA3850
:1040400066E5BB5907DB856739BAE406581947A509
:10405000FB7826C49A653BD987045AB8E6A7F91BB2
:1040600045C6987A24F8A6441A99C7257B3A6486EF
:10407000D85B05E7B98CD2306EEDB3510F4E10F21C
:10408000AC2F7193CD114FADF3702ECC92D38D6FB9
:1040900031B2EC0E50AFF1134DCE90722C6D33D186
:1040A0008F0C52B0EE326C8ED0530DEFB1F0AE4C9F
:1040B0001291CF2D73CA947628ABF517490856B4E0
:1040C000EA6937D58B5709EBB536688AD495CB2981
:1040D00077F4AA4816E9B7550B88D6346A2B75973A
:1040E000C94A14F6A8742AC896154BA9F7B6E80A67
:1040F00054D7896B3500FFFF0000891112239B32D2
:104100002446AD573665BF74488CC19D5AAFD3BEA7
:104110006CCAE5DB7EE9F7F88110080193331A22B7
:10412000A5562C47B7753E64C99C408DDBBF52AE87
:10413000EDDA64CBFFF976E802218B301002991397
:104140002667AF763444BD554AADC3BC588ED19F67
:104150006EEBE7FA7CC8F5D983310A209112180377
:10416000A7772E66B5543C45CBBD42ACD99E508F47
:10417000EFFB66EAFDD874C904428D5316619F7047
:104180002004A9153227BB364CCEC5DF5EEDD7FC27
:104190006888E1997AABF3BA85520C4397711E6037
:1041A000A1142805B3373A26CDDE44CFDFFD56EC07
:1041B000E9986089FBBB72AA06638F7214409D5117
:1041C0002225AB343006B9174EEFC7FE5CCCD5DDE7
:1041D0006AA9E3B8788AF19B87730E6295501C41F7
:1041E000A3352A24B1163807CFFF46EEDDDC54CDC7
:1041F000EBB962A8F99A708B088481951AA793B6D7
:104200002CC2A5D33EE1B7F04008C919522BDB3AC6
:10421000644EED5F766DFF7C899400859BB712A696
:10422000ADD224C3BFF136E0C1184809D33B5A2AA6
:10423000E55E6C4FF77D7E6C0AA583B41886919776
:104240002EE3A7F23CC0B5D14229CB38500AD91B86
:10425000666FEF7E744CFD5D8BB502A49996108756
:10426000AFF326E2BDD034C1C3394A28D11A580B66
:10427000E77F6E6EF55C7C4D0CC685D71EE597F426
:104280002880A1913AA3B3B2444ACD5B5669DF7846
:10429000600CE91D722FFB3E8DD604C79FF516E416
:1042A000A9902081BBB332A2C55A4C4BD7795E6826
:1042B000E11C680DF33F7A2E0EE787F61CC495D5F6
:1042C0002AA1A3B03882B193466BCF7A5448DD5906
:1042D000622DEB3C700EF91F8FF706E69DD414C5D6
:1042E000ABB122A0B9923083C77B4E6AD5585C49E6
:1042F000E33D6A2CF11E780F00061016000610161A
:104300000000000000000000010203040607080985
:1043100000000000010203043843000800000020F0
:1043200050000000C401000888430008500000202D
:10433000D02E0000E0010008000000000000000096
:10434000000000000000000000000000000000006D
:10435000000000000000000000000000000000005D
:10436000010000000000000000000000000000004C
:10437000000000000000000000000000100000002D
:08438000010000000024F4001C
:040000050800018965
:00000001FF
