:020000040800F2
:100000005838002091020008052A0008C12700087E
:10001000012A0008AB040008D12C000800000000F1
:100020000000000000000000000000000B2A000893
:10003000D104000800000000092A00080D2A000869
:10004000AB020008AB020008AB020008AB020008DC
:10005000AB020008AB020008AB020008AB020008CC
:10006000AB020008AB020008AB020008AB020008BC
:10007000AB020008AB020008AB020008AB020008AC
:10008000AB020008AB020008AB020008AB0200089C
:10009000B1040008C1040008AB020008AB0200086C
:1000A000AB020008AB020008AB020008AB0200087C
:1000B000AB020008AB020008AB020008AB0200086C
:1000C000AB020008AB020008AB020008AB0200085C
:1000D000AB020008AB020008BD2C0008AB02000810
:1000E000AB020008AB020008AB020008AB0200083C
:1000F000AB020008AB020008AB020008AB0200082C
:10010000AB020008AB020008AB020008AB0200081B
:10011000AB020008AB020008AB020008AB0200080B
:10012000AB020008AB020008AB020008AB020008FB
:10013000AB020008AB020008AB020008AB020008EB
:10014000AB020008AB020008AB020008AB020008DB
:10015000AB020008AB020008AB020008C12C00088B
:10016000AB020008AB020008AB020008AB020008BB
:10017000AB020008AB020008AB0200080000000060
:10018000AB020008AB020008AB020008AB0200089B
:10019000AB020008AB020008AB020008AB0200088B
:1001A0000000000000000000AB02000800F002F8B0
:1001B00000F05EF80AA090E8000C82448344AAF1A3
:1001C0000107DA4501D100F053F8AFF2090EBAE8A1
:1001D0000F0013F0010F18BFFB1A43F0010318477B
:1001E00050430000704300000A444FF0000C10F828
:1001F000013B13F0070408BF10F8014B1D1108BFA5
:1002000010F8015B641E05D010F8016B641E01F844
:10021000016BF9D113F0080F1EBF10F8014BAD1C94
:100220000C1B09D16D1E58BF01F801CBFAD505E0B2
:1002300014F8016B01F8016B6D1EF9D59142D6D30C
:10024000704700000023002400250026103A28BF34
:1002500078C1FBD8520728BF30C148BF0B60704738
:100260001FB504F053F900F0D5F81FBD10B510BD4F
:1002700000F0E6F81146FFF7F3FF04F043F800F052
:1002800004F903B4FFF7F2FF03BC00F007F9000024
:100290000948804709480047FEE7FEE7FEE7FEE71A
:1002A000FEE7FEE7FEE7FEE7FEE7FEE70448054956
:1002B000054A064B70470000152A0008AD010008EA
:1002C00058180020583800205828002058280020AE
:1002D00053EA020C00F069802DE9F04B4FF0000664
:1002E000002B1FBFB3FA83F503FA05F424FA05F6D1
:1002F0005E4012BF1643B2FA82F502FA05F4C5F168
:1003000020051EBF22FA05FC44EA0C04203556EAFB
:10031000044C4FEA144418BF641C4FF000084FF01F
:100320000009904271EB030C39D3002919BFB1FACF
:1003300081F701FA07F6B0FA80F700FA07F6C7F17D
:1003400020071EBF20FA07FC46EA0C062037B6FB42
:10035000F4FCA7EB0507103F07F01F0BCBF12006BD
:100360000CFA0BFB2CFA06F644BFB3460026202FEE
:10037000A4BF5E464FF0000B5BEA060C08BF4FF0CF
:10038000010B19EB0B09ABFB027C48EB0608C01B09
:1003900006FB02CC0BFB03CC71EB0C01C1E70B4657
:1003A000024641464846BDE8F08B13B54FF00000C9
:1003B0004FF00001AFF30080BDE81C4070474FF0E4
:1003C000000200B5134694469646203922BFA0E8A5
:1003D0000C50A0E80C50B1F12001BFF4F7AF0907B1
:1003E00028BFA0E80C5048BF0CC05DF804EB8900A2
:1003F00028BF40F8042B08BF704748BF20F8022BE5
:1004000011F0804F18BF00F8012B704770477047FC
:100410007047000070B5064C7C44064D7D4403E0F7
:10042000206820448047241DAC42F9D170BD0000F3
:10043000344100003441000000487047F8170020A4
:100440007546FFF7F9FFAE4605006946534620F0B2
:100450000700854618B020B5FFF728FFBDE820400B
:100460004FF000064FF000074FF000084FF0000B70
:1004700021F00701AC46ACE8C009ACE8C009ACE823
:10048000C009ACE8C0098D46704710B50446AFF30B
:1004900000802046BDE81040FFF7F3BE0149182058
:1004A000ABBEFEE726000200704700BFFEE700007B
:1004B00010B5024800F013FA10BD000040170020EC
:1004C00010B5024800F00BFA10BD000040170020E4
:1004D000704772B600BFFEE7F0B504460D461E46F3
:1004E00094F8207020688368A86800B900E000BF15
:1004F000012F01D0022F7DD103F0806030B903F0CD
:10050000006018B903F0805000287ED0C3F3016169
:10051000012088403060A86860B9B5F800C0E8687C
:1005200040EA4C5C206800F5C07000EB0110C0F898
:1005300000C00FE0D5E901C040EACC00D5F80CC0FE
:1005400040EA0C00D4F800C00CF5C07C0CEB011C98
:10055000CCF80000D5F810C0206800F5C07000EBA2
:100560000110C0F804C0287D01280ED1206800F5D4
:10057000C07000EB0110406840F4807C206800F5FA
:10058000C07000EB0110C0F804C0D079000692F8EA
:1005900006C040EA0C4092F805C040EA0C2092F8F0
:1005A00004C040EA0C00D4F800C00CF5C07C0CEB91
:1005B000011CCCF80C00D078000692F802C040EA8A
:1005C0000C4092F801C040EA0C2092F800C040EACA
:1005D0000C00D4F800C00CF5C07C0CEB011CCCF86E
:1005E0000800206800F5C07000EB0110006840F0C2
:1005F000010C01E00FE008E0206800F5C07000EB9E
:100600000110C0F800C00020F0BD606A40F4001086
:1006100060620120F8E7606A40F480206062012097
:10062000F2E70000F0B504460A46216894F820502D
:10063000012D01D0022D7ED1424901F500710868DB
:1006400040F001000860086820F47C5008600868E9
:10065000566A40EA06200860107D00F01F0601205F
:1006600000FA06F3C8699843C861A1F50071D06922
:10067000C8B9D1F80C029843C1F80C02908880B236
:10068000968940EA064601F51070576940F83760D0
:10069000108880B2168940EA064601F51070576945
:1006A00000EBC7004660D069012819D1D1F80C02CF
:1006B0001843C1F80C02908880B2168840EA0646BA
:1006C00001F51070576940F83760908980B216893B
:1006D00040EA064601F51070576900EBC700466016
:1006E000906928B9D1F804029843C1F8040204E0E3
:1006F000D1F804021843C1F80402106928B9D1F8EE
:1007000014029843C1F8140204E0D1F8140218430B
:10071000C1F81402106A012804D1D1F81C02184350
:10072000C1F81C02D1F8000220F00100C1F800025B
:100730000020F0BDFFE7606A40F480206062012085
:10074000F7E7000000640040704770B5044694F875
:100750002050012D01D0022D7DD151B92068C068F3
:1007600000F0030080B9606A40F40010606201206C
:1007700070BD2068006900F0030028B9606A40F489
:10078000001060620120F3E7206800F5D87000EBEC
:100790000110006800F004009060906840B9206883
:1007A00000F5D87000EB01100068400D106007E004
:1007B000206800F5D87000EB01100068C008506098
:1007C000206800F5D87000EB0110006800F002000E
:1007D000D060206800F5D87000EB0110406800F090
:1007E0000F00082802D30820106108E0206800F5F7
:1007F000D87000EB0110406800F00F001061206815
:1008000000F5D87000EB0110406800F47F40000A4A
:100810009061206800F5D87000EB01104068000C72
:100820005061206800F5D87000EB011080681870E6
:10083000206800F5D87000EB0110806800F47F405C
:10084000000A5870206800F5D87000EB011080682D
:1008500000F47F0000E03CE0000C9870206800F598
:10086000D87000EB01108068000ED870206800F589
:10087000D87000EB0110C0681871206800F5D870BE
:1008800000EB0110C06800F47F40000A5871206836
:1008900000F5D87000EB0110C06800F47F00000C78
:1008A0009871206800F5D87000EB0110C068000E48
:1008B000D87131B92068C06840F020002668F06027
:1008C00005E02068006940F02000266830610020C3
:1008D0004EE7606A40F480206062012048E72DE91D
:1008E000F05F04460025206846692068D0F804902F
:1008F000206887682068D0F80CA02068D0F810B075
:100900002068D0F8188006F00100002855D007F0C4
:100910000100C0B101202168886007F0020018B111
:10092000204600F09EFA0EE007F0040010B145F4F6
:10093000006508E007F0080010B145F4805502E0BA
:10094000204600F08DFA07F48070C8B14FF4807033
:100950002168886007F4007018B1204600F083FA1F
:100960000EE007F4806010B145F4005508E007F48C
:10097000006010B145F4804502E0204600F072FAB4
:1009800007F48030C8B14FF480302168886007F4E4
:10099000003018B1204600F068FA0EE007F480201D
:1009A00010B145F4004508E007F4002010B145F40B
:1009B000803502E0204600F057FA06F0080038B112
:1009C0000AF0100020B145F4007510202168C860BD
:1009D00006F0040040B10AF0080028B108202168A0
:1009E000C860204600F0B0F906F0020038B1206877
:1009F000C06800F0030010B1204600F0A7F906F02F
:100A0000400038B10BF0100020B145F48065102093
:100A10002168086106F0200040B10BF0080028B101
:100A2000082021680861204600F0BCF906F010009B
:100A300038B12068006900F0030010B1204600F0D2
:100A4000B3F906F4003040B109F0100028B11020CD
:100A500021684860204600F0D3F906F4803040B1A8
:100A600009F0080028B1082021684860204600F0FD
:100A7000FDF906F4004088B309F0040078B306F4E9
:100A8000807020B108F0010008B145F0010506F4BE
:100A9000007020B108F0020008B145F0020506F42C
:100AA000806020B108F0040008B145F0040506F4A8
:100AB0000060A0B108F0700088B108F07000402814
:100AC00017D006DC10280BD020280CD0302819D1E4
:100AD0000CE0502810D0602814D110E01DE019E07F
:100AE00045F008050FE045F010050CE045F0200545
:100AF00009E045F0400506E045F0800503E045F4D7
:100B0000807500E000BF00BF2068806920F07000A1
:100B1000216888610420216848602DB1606A2843FB
:100B200060622046FFF710FEBDE8F09F70B50446F6
:100B30000CB9012070BD94F8200010B9204600F0D7
:100B4000AFF82068006840F001002168086000F0FC
:100B500063FB05460DE000F05FFB401B0A2808D947
:100B6000606A40F400306062052084F820000120B3
:100B7000E0E72068406800F001000028EBD0206822
:100B8000006820F002002168086000F045FB05467F
:100B90000DE000F041FB401B0A2808D9606A40F4D0
:100BA00000306062052084F820000120C2E7206840
:100BB000406800F002000028EBD1207E012806D119
:100BC0002068006840F080002168086005E0206827
:100BD000006820F0800021680860607E012806D14E
:100BE0002068006840F040002168086005E0206847
:100BF000006820F0400021680860A07E012806D12E
:100C00002068006840F020002168086005E0206846
:100C1000006820F0200021680860E07E012806D1ED
:100C20002068006820F010002168086005E0206856
:100C3000006840F0100021680860207F012806D17C
:100C40002068006840F008002168086005E020681E
:100C5000006820F0080021680860607F012806D144
:100C60002068006840F004002168086005E0206802
:100C7000006820F0040021680860D4E902010843FC
:100C800021690843616908436168491E0843216876
:100C9000C86100206062012084F82000002049E73C
:100CA00010B586B00446142101A8FFF788FB23493C
:100CB000206888423FD100BF002000902048006893
:100CC00040F000701E4908600846006800F000709F
:100CD000009000BF00BF00BF0020009018481038EF
:100CE000006840F00800164910390860084600689E
:100CF00000F00800009000BF00BF03200190022018
:100D0000029000200390032004900920059001A97F
:100D10000C4800F073F900221146142000F00AFB81
:100D2000142000F0F3FA00221146152000F002FB17
:100D3000152000F0EBFA06B010BD00000064004082
:100D400040380240000C02407047000010B50446D5
:100D50001049206888420CD10F4BA3F11C020021DE
:100D60002046FFF7F2FC0C482038816A001D8847B6
:100D70000FE00A49206888420BD1094BA3F11C02FD
:100D800000212046FFF7E1FC05482038816A001D5C
:100D9000884710BD006400406814002000680040CF
:100DA000941400207047000010B5044610492068D4
:100DB00088420CD10F4BA3F11C0201212046FFF702
:100DC000C4FC0C482038816A001D88470FE00A499E
:100DD000206888420BD1094BA3F11C020121204657
:100DE000FFF7B3FC05482038816A001D884710BD15
:100DF0000064004068140020006800409414002043
:100E0000704770B5044694F82000012822D10220D2
:100E100084F820002068006820F001002168086044
:100E200000F0FAF905460DE000F0F6F9401B0A283B
:100E300008D9606A40F400306062052084F8200020
:100E4000012070BD2068406800F001000028EBD14F
:100E50006062F6E7606A40F4002060620120F0E71B
:100E6000704770477047704770477047704770B55C
:100E70000446A56D00F0D0F9064694F83500022826
:100E800008D08020606500BF002084F8340000BFD7
:100E9000012070BD2068006820F0160021680860FD
:100EA0002068406920F0800021684861206C08B902
:100EB000A06C28B12068006820F008002168086054
:100EC0002068006820F001002168086010E000F050
:100ED000A3F9801B05280BD920206065032084F826
:100EE000350000BF002084F8340000BF0320D0E7A5
:100EF0002068006800F001000028E8D194F85C1038
:100F00003F208840A860012084F8350000BF002001
:100F100084F8340000BF00BFBBE7014691F83500FC
:100F2000022803D08020486501207047052081F801
:100F300035000868006820F001000A681060002091
:100F4000F3E72DE9F04704460D4616461F464FF0DD
:100F50000008D4F8589000BF94F83400012802D15A
:100F60000220BDE8F087012084F8340000BF94F827
:100F70003500012825D1022084F835000020606565
:100F80003B4632462946204602F0D6FD94F85C10D6
:100F90003F208840C9F808002068006840F016002B
:100FA00021680860206C28B12068006840F00800C3
:100FB000216808602068006840F00100216808602E
:100FC00006E000BF002084F8340000BF4FF00208A4
:100FD0004046C6E770B5044600F01EF906462546B1
:100FE000681C10B104480078054400BF00F014F9F3
:100FF000801BA842FAD370BDE0030020F8B502467A
:101000000B460025002400200021E0E0012606FA1E
:1010100001F51E6806EA0504AC4274D11E7906F09B
:101020000306012E04D01E7906F00306022E13D10A
:1010300090684F000326BE40B0434F00DE68BE40BC
:1010400030439060506801268E40B0431E79C6F34D
:1010500000168E40304350601E7906F00306032EC2
:1010600009D0D0684F000326BE40B0434F009E68B1
:10107000BE403043D0601E7906F00306022E13D125
:10108000CF0802F1200656F827004E07F70E0F266C
:10109000BE40B0434F07FF0E1E69BE403043CF082D
:1010A00002F1200646F8270010684F000326BE40D4
:1010B000B0431E7906F003064F00BE403043106077
:1010C0005E6806F44036002E1DD000BF0026009654
:1010D000414E366846F480463F4F3E603E46366895
:1010E00006F48046009600BF00BF3C4E8F0856F8BD
:1010F00027008E07370F0F26BE40B043384EB2424E
:1011000002D100262EE061E0364EB24201D1012626
:1011100028E0354EB24201D1022623E0334EB242DE
:1011200001D103261EE0324EB24201D1042619E05D
:10113000304EB24201D1052614E02F4EB24201D109
:1011400006260FE02D4EB24201D107260AE02C4EB2
:10115000B24201D1082605E02A4EB24201D1092649
:1011600000E00A268F073F0FBE4030431B4E8F081A
:1011700046F82700244E3068A0435E6806F48016C7
:1011800006B12043204E3060361D3068A0435E68B3
:1011900006F4001606B120431B4E361D30601A4E71
:1011A000361F3068A0435E6806F4003606B120435F
:1011B000154E361F3060361F3068A0435E6806F457
:1011C000803606B12043104E083E3060491C10297D
:1011D000FFF41CAFF8BD000044380240083801405D
:1011E000000002400004024000080240000C0240DF
:1011F000001002400014024000180240001C02408F
:101200000020024000240240083C01400AB18161F4
:1012100001E00B04836170470148006870470000DB
:10122000D8030020034800680349097808440149AD
:1012300008607047D8030020E003002010B50D4877
:10124000006840F400700B4908600846006840F4EC
:10125000806008600846006840F4807008600320E1
:1012600000F0A6F80F2000F007F800F02BF800209F
:1012700010BD0000003C024070B504460E480078E6
:101280004FF47A71B1FBF0F00C490968B1FBF0F54D
:10129000284600F075FC08B1012070BD102C07D263
:1012A00000222146501E00F045F80548046001E088
:1012B0000120F2E70020F0E7E0030020E403002033
:1012C000DC03002008B500BF002000900E48006835
:1012D00040F480400C4908600846006800F48040F3
:1012E000009000BF00BF00BF00200090081F0068F2
:1012F00040F08050091F08600846006800F08050E8
:10130000009000BF00BF08BD4438024001460846B7
:1013100000280DDB00BF00BF00F01F0301229A4030
:1013200043099B0003F1E023C3F8002100BF00BF85
:1013300000BF70472DE9F05F80460D461646002736
:1013400002F0AEFF074639462A46334601F0070051
:10135000C0F1070ABAF1040F02D94FF0040A01E004
:10136000C0F1070AD14600F1040ABAF1070F02D210
:101370004FF0000A01E0A0F1030AD4464FF0010A41
:101380000AFA09FAAAF1010A0AEA020A0AFA0CFAA6
:101390004FF0010B0BFA0CFBABF1010B0BEA030B4B
:1013A0004AEA0B042146404602F066FFBDE8F09F82
:1013B00000BF00F00702064B19684FF6FF03194003
:1013C000044B0B4343EA0221014B196000BF7047F5
:1013D0000CED00E00000FA0538B5002400BF002045
:1013E00000901D48006840F080501B490860084686
:1013F000006800F08050009000BF00BF0120174936
:101400000864FFF709FF044607E0FFF705FF001B2C
:10141000B0F57A7F01D9032038BD1148406800F447
:101420008030B0F5803FF0D101200C494864FFF7CF
:10143000F3FE044607E0FFF7EFFE001BB0F57A7FEE
:1014400001D90320E8E70648406800F40030B0F511
:10145000003FF0D10020DFE74038024000000E429C
:101460000070004070B504460D460CB9012070BDF7
:101470005848006800F00F00A84209D255490D7085
:101480000846006800F00F00A84201D00120EEE7F6
:10149000207800F0020002281DD1207800F004001E
:1014A000042805D14C48006840F4E0504A490860DF
:1014B000207800F00800082805D14748006840F46B
:1014C0006040454908604448006820F0F000A16889
:1014D000084341490860207800F00100A8B3606823
:1014E000012807D13C4808380068C0F34040B8B92B
:1014F0000120BCE76068022802D06068032807D199
:10150000354808380068C0F3406048B90120AEE7AC
:10151000314808380068C0F3400008B90120A6E748
:101520002D48006820F00300616808432A490860DC
:10153000FFF772FE064609E0FFF76EFE801B41F2E0
:101540008831884202D9032091E707E022480068E9
:1015500000F00C006168B0EB810FEDD11D48006810
:1015600000F00F00A84209D91A490D70084600681A
:1015700000F00F00A84201D0012078E7207800F0A9
:101580000400042807D11448006820F4E050E16802
:10159000084311490860207800F00800082808D1A5
:1015A0000D48006820F46040216940EAC1000A4902
:1015B000086000F03FF808490968C1F30311074AC1
:1015C000515CC8400649086006480068FFF754FEB1
:1015D00000204CE7003C0240083802401645000855
:1015E000E4030020DC03002001480068704700008D
:1015F000E403002000B5FFF7F7FF04490968C1F3D1
:101600008221034A515CC84000BD000008380240F6
:101610002645000800B5FFF7E7FF04490968C1F354
:101620004231034A515CC84000BD00000838024006
:10163000264500082DE9F047002400250026A14694
:101640002548006800F00C0020B1042805D00828C7
:101650003AD105E0DFF8849039E0DFF8849036E095
:101660001D48001F006800F03F041B48001F006871
:1016700000F4800078B11A481749091F0968C1F3BE
:101680008811A0FB01700146224600233846FEF770
:101690001FFE05460EE011480F49091F0968C1F3F6
:1016A0008811A0FB01700146224600233846FEF750
:1016B0000FFE05460848001F0068C0F30140401CAB
:1016C0004600B5FBF6F902E0DFF8109000BF00BF5E
:1016D0004846BDE8F0870000083802400024F400C6
:1016E000001BB700F8B504460CB90120F8BD2078FE
:1016F00000F00100002874D0F948006800F00C00E8
:1017000004280DD0F648006800F00C00082813D11A
:10171000F348001F006800F48000B0F5800F0BD183
:10172000EF4808380068C0F34040002859D060688E
:10173000002856D10120D9E700BF6068B0F5803F8E
:1017400008D1E7480838006840F48030E449083997
:1017500008601EE06068B0F5A02F0DD1E0480838A1
:10176000006840F48020DE490839086008460068B7
:1017700040F4803008600CE0D9480838006820F454
:101780008030D749083908600846006820F4802076
:10179000086000BF606890B1FFF73EFD054606E0B7
:1017A000FFF73AFD401B642801D903209EE7CC488F
:1017B00008380068C0F340400028F1D011E0FFF77E
:1017C0002BFD054606E0FFF727FD401B642801D9E5
:1017D00003208BE7C24808380068C0F34040002867
:1017E000F1D1207800F0020002285FD1BC480068E7
:1017F00000F00C0058B1BA48006800F00C0008284E
:101800001CD1B748001F006800F48000B0B9B4488C
:1018100008380068C0F3400020B1E068012801D01A
:10182000012063E7AE480838006820F0F80021691D
:1018300040EAC100AA490839086037E0E06800B30F
:101840000120A8490860FFF7E7FC054606E0FFF71E
:10185000E3FC401B022801D9032047E7A0480838D1
:101860000068C0F340000028F1D09D4808380068A7
:1018700020F0F800216940EAC10099490839086060
:1018800014E0002097490860FFF7C6FC054606E013
:10189000FFF7C2FC401B022801D9032026E790482D
:1018A00008380068C0F340000028F1D1207800F02B
:1018B000080008282CD16069A8B101208A49086075
:1018C000FFF7AAFC054606E0FFF7A6FC401B02282E
:1018D00001D903200AE782486C300068C0F3400059
:1018E0000028F1D014E000207F490860FFF794FC45
:1018F000054606E0FFF790FC401B022801D90320B3
:10190000F4E677486C300068C0F340000028F1D15D
:10191000207800F00400042870D100277048383087
:10192000006800F0805090B900BF002000906C4823
:101930003830006840F08050694938310860084606
:10194000006800F08050009000BF00BF012767488A
:10195000006800F48070B0B96448006840F480709A
:1019600062490860FFF758FC054606E0FFF754FCA3
:10197000401B022801D90320B8E65C48006800F447
:1019800080700028F2D000BFA068012808D1544818
:101990006830006840F001005149683108601DE07E
:1019A000A06805280DD14E486830006840F004005A
:1019B0004B49683108600846006840F00100086043
:1019C0000CE047486830006820F001004449683165
:1019D00008600846006820F00400086000BFA068A6
:1019E000A8B1FFF719FC054609E0FFF715FC401BFD
:1019F00041F28831884202D9032077E626E0384850
:101A000068300068C0F340000028EED013E0FFF714
:101A100003FC054608E0FFF7FFFB401B41F288315D
:101A2000884201D9032061E62D4868300068C0F380
:101A300040000028EFD1012F07D129483830006835
:101A400020F0805026493831086000BFA069002886
:101A500045D02348006800F00C0008285DD0A0693C
:101A6000022845D100201F490866FFF7D5FB05462F
:101A700006E0FFF7D1FB401B022801D9032035E621
:101A8000174808380068C0F340600028F1D1D4E955
:101A900007010843616A40EA81110122A06AC2EB92
:101AA000500041EA00412C20005D41EA00600C49F1
:101AB000091F086001200B490866FFF7ADFB0546CA
:101AC00006E0FFF7A9FB401B022801D903200DE621
:101AD000034808380068C0F340600028F1D049E0AE
:101AE0000838024000004742800E47420070004024
:101AF000002021490866FFF78FFB054606E0FFF747
:101B00008BFB401B022801D90320EFE51B4800682E
:101B1000C0F340600028F2D12CE0A069012800D178
:101B2000E4E51648001D0668A069012820D006F4E7
:101B30008001E06981421BD106F03F01206A8142A9
:101B400016D147F6C0703040616AB0EB811F0FD1EB
:101B500006F440310122A06AC2EB5000B1EB004F05
:101B600006D106F070612C20005DB1EB006F01D052
:101B70000120BBE50020B9E50000474200380240E3
:101B800070B504462546681EB0F1807F01D3012060
:101B90000FE0681E4FF0E02148610F214FF0FF3049
:101BA00002F06AFB00204FF0E02188610720086105
:101BB000002070BD30B502460B4600BF92F83C00D5
:101BC000012801D1022030BD012082F83C0000BF75
:101BD000022082F83D00106844681068816824F093
:101BE00070041868044310684460184D1068A842D7
:101BF0001BD01068B0F1804F17D0154D1068A84267
:101C000013D0144D1068A8420FD0134D1068A8428D
:101C10000BD0124D1068A84207D0114D1068A84291
:101C200003D0104D1068A84205D121F080015868FA
:101C3000014310688160012082F83D0000BF002050
:101C400082F83C0000BF00BFBDE70000000001407B
:101C50000004004000080040000C00400004014067
:101C6000004001400018004010B504460CB90120A6
:101C700010BD94F83D0028B9002084F83C002046AF
:101C800000F026F8022084F83D00211D206800F0B5
:101C9000CBFE012084F8460000BF84F83E000121FD
:101CA0003F200155402001554120015500BF00BF94
:101CB000012084F84200432001554420015545206D
:101CC000015500BF012084F83D000020D0E700004E
:101CD00008B50168B1F1804F0FD100BF002100911C
:101CE0000649096841F00101044A1160114609687A
:101CF00001F00101009100BF00BF08BD4038024063
:101D00002DE9F04104460D46002700BF94F83C0041
:101D1000012802D10220BDE8F081012084F83C00B6
:101D200000BF022084F83D002068866826F0770610
:101D300026F47F46206886602868502833D00CDC63
:101D4000202850D004DC00284BD0102851D149E085
:101D5000302849D040284CD139E060282DD0702857
:101D600007D0B0F5805F03D0B0F5005F41D10DE042
:101D700041E0D5E902136A68206800F0D2FE2068CD
:101D8000866846F077062068866034E0D5E902135D
:101D90006A68206800F0C5FE2068806840F48040D2
:101DA0002168886027E0EA686968206801F081FF9F
:101DB0005021206801F074FF1DE0EA68696820681E
:101DC00001F08AFF6021206801F06AFF13E0EA68F1
:101DD0006968206801F06DFF4021206801F060FF14
:101DE00009E000BF00BF00BF2968206801F058FF6C
:101DF00001E0012700BF00BF012084F83D0000BFC3
:101E0000002084F83C0000BF384684E710B586B057
:101E10000446142101A8FEF7D2FA2068B0F1804FE1
:101E20001CD100BF002000900D48006840F0010068
:101E30000B4908600846006800F00100009000BFF0
:101E400000BF072001900220029000200390049020
:101E50000120059001A90348FFF7D0F806B010BD96
:101E600030380240000002402DE9F04104460D46A2
:101E70001646002700BF94F83C00012802D102203A
:101E8000BDE8F081012084F83C0000BF36B1042E8B
:101E90001BD0082E31D00C2E5ED145E0294620689B
:101EA00001F060FE2068806940F0080021688861C8
:101EB0002068806920F004002168886120688069BA
:101EC000296908432168886148E02946206800F0B4
:101ED00033FE2068806940F40060216888612068D2
:101EE000806920F4806021688861206880692969A0
:101EF00040EA01202168886130E02946206801F02D
:101F000069FE2068C06940F008002168C861206847
:101F1000C06920F004002168C8612068C06929698F
:101F200008432168C86119E02946206801F08EFE47
:101F30002068C06940F400602168C8612068C069F9
:101F400020F480602168C8612068C069296940EA7E
:101F500001202168C86101E0012700BF00BF00BF68
:101F6000002084F83C0000BF384689E710B50446DD
:101F70000CB9012010BD94F83D0028B9002084F868
:101F80003C00204600F025F8022084F83D00211D89
:101F9000206800F049FD012084F8460000BF84F865
:101FA0003E0001213F2001554020015541200155AF
:101FB00000BF00BF012084F84200432001554420A7
:101FC00001554520015500BF012084F83D00002047
:101FD000D0E7704770B504460D4615B994F83E0039
:101FE0000BE0042D02D13F20005D06E0082D02D158
:101FF0004020005D01E04120005D012801D001206A
:1020000070BD1DB9022084F83E000EE0042D03D1FE
:1020100002213F20015508E0082D03D10221402074
:10202000015502E002214120015501222946206884
:1020300000F066FD23492068884203D022492068C9
:10204000884201D1012000E0002028B12068406CC6
:1020500040F40040216848641A49206888421BD037
:102060002068B0F1804F17D018492068884213D0FB
:102070001749206888420FD01649206888420BD043
:1020800011492068884207D013492068884203D04C
:102090001249206888420CD12068806800F0070649
:1020A000062E0CD02068006840F00100216808600E
:1020B00005E02068006840F0010021680860002009
:1020C0009EE70000000001400004014000040040C1
:1020D00000080040000C0040004001400018004093
:1020E000F8B504460E46174694F8420020282ED133
:1020F00006B10FB90120F8BD012020630020606304
:102100003A463146204600F055FD0546EDB9206BB4
:10211000012819D100BF00200090206800680090BD
:1021200020684068009000BF00BF00BF00BF21686A
:102130000C3151E8001F41F0100021680C3141E8DA
:102140000002002AF3D100E001252846D3E702204F
:10215000D1E7000070B504460D465049206888421A
:102160000FD14F482946D0F8082200F582709047D9
:102170004B48B0F8042200F582712046FFF7B0FF0B
:102180008AE04849206888420FD147482946D0F85C
:10219000082200F5827090474348B0F8042200F509
:1021A00082712046FFF79CFF76E040492068884214
:1021B0000FD13F482946D0F8082200F58270904799
:1021C0003B48B0F8042200F582712046FFF788FFF3
:1021D00062E03849206888420FD137482946D0F854
:1021E000082200F5827090473348B0F8042200F5C9
:1021F00082712046FFF774FF4EE030492068884224
:102200000FD12F482946D0F8082200F58270904758
:102210002B48B0F8042200F582712046FFF760FFDA
:102220003AE02849206888420FD127482946D0F84B
:10223000082200F5827090472348B0F8042200F588
:1022400082712046FFF74CFF26E020492068884233
:102250000FD11F482946D0F8082200F58270904718
:102260001B48B0F8042200F582712046FFF738FFC2
:1022700012E01849206888420ED117482946D0F844
:10228000082200F5827090471348B0F8042200F548
:1022900082712046FFF724FF70BD0000001001404E
:1022A000E803002000440040F405002000480040FE
:1022B00000080020004C00400C0A002000500040A4
:1022C000180C002000140140240E0020007800406B
:1022D00030100020007C00403C12002070470000BD
:1022E0002DE9F84F0446206805682068C668206814
:1022F00047694FF00009CA4605F00F09B9F1000F10
:102300000AD105F0200038B106F0200020B12046A7
:1023100001F034FEBDE8F88FB9F1000F7CD007F072
:10232000010018B906F49070002875D005F001007E
:1023300030B106F4807018B1606C40F00100606448
:1023400005F0040030B107F0010018B1606C40F0F6
:102350000200606405F0020030B107F0010018B11E
:10236000606C40F00400606405F0080048B106F0BD
:10237000200010B907F0010018B1606C40F00800AF
:102380006064606C002846D005F0200028B106F09B
:10239000200010B1204601F0F1FD20684069C0F333
:1023A000801A606C00F0080010B9BAF1000F2DD04F
:1023B000204601F0A3FE2068406900F0400040285C
:1023C00020D100BF00BF2168143151E8001F21F067
:1023D00040002168143141E80002002AF3D100BF17
:1023E000E06B50B17748E16B0865E06BFEF795FD57
:1023F00088B1E06B016D88470DE02046FFF76EFF66
:1024000009E009E02046FFF769FF04E02046FFF7F6
:1024100065FF002060647DE7206B012878D105F01E
:102420001000002874D006F010000028FAD000BF79
:1024300000200090206800680090206840680090AC
:1024400000BF00BF2068406900F04000402860D114
:10245000E06B006840681FFA80F8B8F1000F56D0B2
:10246000A08D404553DDA4F82E80E06BC069B0F527
:10247000807F43D000BF00BF21680C3151E8001FAE
:1024800021F4807021680C3141E80002002AF3D168
:1024900000BF00BF00BF2168143151E8001F21F0C8
:1024A00001002168143141E80002002AF3D100BF85
:1024B00000BF00BF2168143151E8001F21F0400027
:1024C0002168143141E80002002AF3D100BF202026
:1024D00084F842000020206300BF00BF21680C3157
:1024E00051E8001F21F0100021680C3141E8000282
:1024F000002AF3D100BFE06BFEF7B9FC0220606355
:10250000A08DE28D801A81B22046FFF723FE01E7FD
:1025100042E0A08DE18D401A1FFA80F8E08DD0B323
:10252000B8F1000F37D000BF00BF21680C3151E86F
:10253000001F21F4907021680C3141E80002002A4C
:10254000F3D100BF00BF00BF2168143151E8001F64
:1025500021F001002168143141E80002002AF3D182
:1025600000BF202084F842000020206300BF00BF8D
:1025700021680C3151E8001F21F0100021680C3156
:1025800041E80002002AF3D100BF02206063414607
:102590002046FFF7DFFDBDE605F0800030B106F014
:1025A000800018B1204601F067FDB3E605F0400059
:1025B00030B106F0400018B1204601F042FEA9E615
:1025C00000BFA7E66342000810B504460CB901201D
:1025D00010BDA06900B100E000BF94F8410028B927
:1025E000002084F84000204600F02AF8242084F8D7
:1025F00041002068C06820F400502168C86020466F
:1026000001F0A6FB2068006920F490402168086171
:102610002068406920F02A00216848612068C0686D
:1026200040F400502168C86000206064202084F8D5
:10263000410084F842000020606300BFC8E700004A
:1026400010B586B00446142101A8FDF7B8FE1F4955
:102650002068884238D100BF002000901C480068E4
:1026600040F020001A4908600846006800F0200089
:10267000009000BF00BF00BF002000901448143835
:10268000006840F0400012491439086008460068AC
:1026900000F04000009000BF00BF4FF48440019064
:1026A000022002900020039003200490082005904F
:1026B00001A90848FEF7A2FC002211464720FEF7B8
:1026C00039FE4720FEF722FE06B010BD001401407F
:1026D000443802400018024070B504460D461646C4
:1026E00094F8420020280BD105B10EB9012070BD2D
:1026F0000020206332462946204600F0BFFAF6E764
:102700000220F4E710B5044626492068884247D1E4
:1027100025480078401C2449087024480178224844
:102720000078401E224A11541F48007801280FD11A
:102730001E480078AA2807D101201B4908701B48B1
:1027400000781C49087024E000201749087020E038
:1027500015480078022806D11349087013480078FC
:102760001449487015E010480078032806D10E4936
:1027700008700E4800780F4988700AE00A4800780F
:10278000042806D100200849087008480078094943
:10279000C87000200549087001220748FFF79CFF18
:1027A00010BD000000140140D9010020D00100201C
:1027B000D5010020D1010020681700207047704724
:1027C00000BFFEE710B50E480E49086009204860BA
:1027D00000210C488160C1604FF480310161090122
:1027E0004161002101760121417600218176C17687
:1027F00001774177FEF79AF908B1FDF76AFE10BD3F
:10280000006400404017002008B500BF0020009081
:102810000E48006840F400100C4908600846006843
:1028200000F40010009000BF00BF002211461020ED
:10283000FEF780FD1020FEF769FD002211461120F1
:10284000FEF778FD1120FEF761FD08BD303802402B
:1028500000B587B0142102A8FDF7B1FD00BF00202C
:1028600001902648006840F00100244908600846AD
:10287000006800F00100019000BF00BF00BF002011
:1028800001900846006840F00800086008460068AB
:1028900000F00800019000BF00BF00BF00200190C1
:1028A0000846006840F0800008600846006800F0B4
:1028B0008000019000BF00BF00BF002001900846CB
:1028C000006840F0040008600846006800F004005A
:1028D000019000BF00BF00223C210948FEF796FC92
:1028E0003C200290012003900220049000200590DB
:1028F00002A90348FEF782FB07B000BD3038024052
:10290000001C024000B58DB0002009900A900B9089
:102910000C90079008901C216846FDF750FD4FF081
:10292000804028490860A720486000212548816030
:1029300044F61F61C160002101618161FFF794F9D4
:1029400008B1FDF7C6FD4FF48050099009A91D4854
:10295000FFF7D6F908B1FDF7BCFD1A48FFF706FBF3
:1029600008B1FDF7B6FD00200790089007A91548AB
:10297000FFF720F908B1FDF7ACFD602000904FF49F
:10298000FA600190002002900490002269460D48F0
:10299000FFF76AFA08B1FDF79CFD04226946094871
:1029A000FFF762FA08B1FDF794FD08226946054871
:1029B000FFF75AFA08B1FDF78CFD0248FFF726FA37
:1029C0000DB000BDB017002010B50B480B490860D2
:1029D0004FF4E1304860002108488160C160016126
:1029E0000C21416100218161C161FFF7EDFD08B15A
:1029F000FDF76FFD10BD00000014014068170020B6
:102A000000BFFEE700BFFEE77047704710B5FEF756
:102A100009FC10BD0348006840F4700001490860DB
:102A20007047000088ED00E010B50268294B98421D
:102A30000ED0B0F1804F0BD0274B984208D0274BD7
:102A4000984205D0264B984202D0264B984203D19B
:102A500022F070024B681A431E4B984220D0B0F10E
:102A6000804F1DD01C4B98421AD01C4B984217D057
:102A70001B4B984214D01B4B984211D01A4B9842D2
:102A80000ED01A4B98420BD0194B984208D0194BD4
:102A9000984205D0184B984202D0184B984203D167
:102AA00022F44072CB681A4322F080034C6943EA57
:102AB000040202608B68C3620B688362054B984214
:102AC00002D0084B984201D10B6903630123436193
:102AD00010BD00000000014000040040000800405C
:102AE000000C00400004014000400140004401404F
:102AF0000048014000180040001C00400020004039
:102B000030B501F01F05012404FA05F3046A9C4363
:102B10000462046A01F01F0502FA05F52C43046201
:102B200030BD30B50C46816821F47F4142EA03256F
:102B300025432943816030BD30B5056A25F0100575
:102B40000562026A4368846924F4E04424F4407412
:102B50000D6844EA052422F020028D6842EA05123D
:102B6000124DA84200D103E0114DA84207D100BF89
:102B700022F08002CD6842EA051222F040020B4D9D
:102B8000A84202D00A4DA84209D123F4806323F45D
:102B900000634D6943EA85038D6943EA8503436019
:102BA00084614D688563026230BD00000000014011
:102BB0000004014077B581B0044615460298A06232
:102BC000A58500206064222084F842002848E16B3B
:102BD000C8632848E16B08642748E16BC86400209B
:102BE000E16B086502AE32682368191D2B46E06B65
:102BF000FEF7A7F900BF0020009020680068009051
:102C000020684068009000BF00BF206970B100BF1D
:102C100000BF21680C3151E8001F41F48070216829
:102C20000C3141E80002002AF3D100BF00BF00BF11
:102C30002168143151E8001F41F00100216814316E
:102C400041E80002002AF3D100BF00BF00BF2168A5
:102C5000143151E8001F41F040002168143141E86F
:102C60000002002AF3D100BF002004B070BD0000B4
:102C70008F410008D9400008013D000810B5034607
:102C800099629A85DA8500205864222083F84200F0
:102C9000186928B11868C06840F480701C68E0604A
:102CA0001868406940F001001C6860611868C068DD
:102CB00040F020001C68E060002010BD704700005C
:102CC00010B50248FFF70CFB10BD0000681700208C
:102CD00000BFFEE710B50446224610210148FEF76A
:102CE00095FA10BD001C024010B504462246202172
:102CF0000148FEF78BFA10BD001C024010B50446D7
:102D0000224604210148FEF781FA10BD001C024052
:102D100010B50446224608210148FEF777FA10BD97
:102D2000001C0240F0B587B006460C4617461D460B
:102D30000194002002900390049005956B463A465A
:102D400001A93046FDF7C8FB07B0F0BD10B5044639
:102D500081480078E8B981480078D0B1601D804989
:102D60000870804800F012F97E4800F00FF9012049
:102D700000F0F2FB012000F0FFFB012000F00CFC52
:102D800001207549087000207449087001207649B7
:102D900008707148007801281AD170480078B8B1DD
:102DA0006F490978C1EBC101704A02EB810000F064
:102DB000EDF86B490978C1EBC1016C4A02EB810067
:102DC00000F0E4F8022064490870002063490870AC
:102DD0006148007802281DD160480078D0B1604970
:102DE0000978C1EBC101614A02EB810000F0CEF825
:102DF0005B490978C1EBC1015C4A02EB810000F03C
:102E0000C5F8002000F0C8FB0320534908700020DB
:102E1000524908705048007803280ED14F48007876
:102E200058B1504800F0B2F84E4800F0AFF8042016
:102E3000494908700020494908704748007804282B
:102E400028D14648007828B349480078032802DD95
:102E500003204749087046480078002802DA00201D
:102E60004349087042490978C1EBC1013F4A02EB6E
:102E7000810000F08BF83E490978C1EBC1013B4A63
:102E800002EB810000F082F8052033490870002031
:102E9000324908703048007805280BD12F48007857
:102EA00040B1012000F078FB06202B49087000207B
:102EB0002A4908702848007806280ED1274800784B
:102EC00058B12A4800F062F8284800F05FF807205F
:102ED000214908700020214908701F480078072800
:102EE0001AD11E480078B8B1002000F055FB002030
:102EF00000F032FB002000F03FFB64201D49087009
:102F0000002015490870154908701B490870642095
:102F10001A4948708870C8700F48007828B118485E
:102F20000068401C1649086002E00020144908604F
:102F300013480068B0F5FA6F08D30848007828B93C
:102F400001200649087000200D4908600D490E480F
:102F500000F07EF810BD0000CE010020CC01002062
:102F6000DB010020B8030020CD010020DC0100209F
:102F7000B7010020B6010020DA010020D1010020B5
:102F8000D4030020B80100200417002090ED010AAE
:102F9000094981ED000A90ED020A81ED010A90EDE8
:102FA000030A81ED020A90ED040A81ED030A90ED17
:102FB000050A81ED040A70470417002090ED060A07
:102FC000094981ED000A90ED060A81ED010A90EDB4
:102FD000060A81ED020A90ED060A81ED030A90EDE2
:102FE000060A81ED040A7047B8010020024630EE5F
:102FF000602A71EE602A82EE223AF0EE431A8B1AB2
:1030000002EE103AF8EEC22A02EE102AB8EEC22AF8
:1030100001EEA22ABDEEC22A12EE100A7047B0EEEF
:10302000401A431A02EE103AF8EEC22A531A02EE80
:10303000103AB8EEC22A82EE823AF0EE431A70EEEF
:10304000C12AB0EE412A01EEA22AB0EE420A704730
:1030500070B504460D467F4801680068401C7D4AF3
:103060001060672913D9002011460860D4ED000ACA
:10307000B0EE600A784800F0A3FBD5ED000AB0EE90
:10308000600A754800F09FFB734800F0B5FB71487B
:1030900041684068401C6F4A50606B2913D900207A
:1030A00011464860D4ED010AB0EE600A6B4800F0AA
:1030B00087FBD5ED010AB0EE600A684800F083FB9B
:1030C000664800F099FB634881688068401C614A4B
:1030D00090606E2913D9002011468860D4ED020A51
:1030E000B0EE600A5E4800F06BFBD5ED020AB0EE70
:1030F000600A5B4800F067FB594800F07DFB5548CB
:10310000C168C068401C534AD060822913D900208E
:103110001146C860D4ED030AB0EE600A514800F0D1
:103120004FFBD5ED030AB0EE600A4E4800F04BFBB2
:103130004C4800F061FB474801690069401C454A62
:103140001061AA293FD9002011460861464800783D
:1031500030B9D4ED040AB0EE600A444800F030FB08
:103160004148007801281DD141480078092819D02C
:103170003F4800780A2815D03D4800780B2811D028
:103180003C480078012807D03A480078022803D04C
:1031900038480078032805D19FED370A334800F0FE
:1031A0000FFB06E0D4ED040AB0EE600A2F4800F0F1
:1031B00007FBD5ED040AB0EE600A2C4800F003FBD3
:1031C0002A4800F019FB2D4801680068401C2B4A72
:1031D0001060642905D90020114608601E4800F0DF
:1031E0006DFB264841684068401C244A50606929AC
:1031F00005D9002011464860184800F05FFB1F48C1
:1032000081688068401C1D4A90606E2905D90020A5
:1032100011468860124800F051FB1848C168C06828
:10322000401C164AD060782905D900201146C86094
:103230000C4800F043FB114801690069401C0F4A2B
:103240001061822905D9002011460861074800F065
:1032500035FB70BD18170020E8140020541500201D
:10326000C01500202C160020CF0100209816002049
:10327000B6010020CE01002075A9E23F2C170020E6
:1032800000B593B0302107A8FDF799F8142102A8E2
:10329000FDF795F800BF002001902648006840F037
:1032A0008050244908600846006800F08050019072
:1032B00000BF00BF00BF002001901F48006840F41D
:1032C00040401D4908600846006800F440400190F5
:1032D00000BF00BF012007900004089002200D905D
:1032E00041050E9106210F91B421109102211191F7
:1032F0000421129107A8FEF7F5F908B1FDF7E9F8E6
:10330000FEF76AF808B1FDF7E4F80F2002900220FA
:103310000390002004904FF4A05005904FF480508B
:103320000690052102A8FEF79DF808B1FDF7D1F837
:1033300013B000BD403802400070004010B5044694
:1033400020680A2824D2DFE800F02305230B23118C
:103350002317231D04F11C010E4800F037FA17E073
:1033600004F11C010C4800F031FA11E004F11C01D9
:103370000A4800F02BFA0BE004F11C01084800F0A9
:1033800025FA05E004F11C01064800F01FFA00BF11
:1033900000BF10BDE814002054150020C015002007
:1033A0002C16002098160020F0B58BB007460C466E
:1033B00015461E4604F0020080B1E8040190E800C2
:1033C00004F0030140EA41000290F0040390F00091
:1033D00004F0030140EA4100049009E06801019013
:1033E000A007400F029070010390A007400F0490C7
:1033F000E0100690C4F380000590012009900020A1
:103400000790012008900E200A9001A93846FDF788
:1034100009F90BB0F0BD70B50246134658781C7818
:1034200040EA042531B110460C46467826700678ED
:10343000667000BF284670BD10B52DED028B0446A6
:10344000B0EE408AF0EE608A04F00100FFF74CFC19
:10345000C4F34000FFF73EFCC4F38000FFF758FCC4
:10346000C4F3C000FFF74AFC012121EA141000F068
:1034700001F9012121EA541000F0F0F8012121EABC
:10348000941000F099F8012121EAD41000F09EF880
:10349000012121EA142000F0A3F8012121EA54209F
:1034A00000F0A8F8012121EA942000F0ADF80121F4
:1034B00021EAD42000F0B2F8012121EA143000F012
:1034C000B7F8012121EA543000F0BCF8BDEC028BC2
:1034D00010BD000070B504460D462046FDF791FC76
:1034E0002068406940F00200216848612068406916
:1034F00040F01000216848611349206888420FD1CC
:1035000012480460856200231A4619462046FFF7D8
:103510004BFF00231A460C212046FFF745FF12E01F
:103520000B49206888420ED10A4804608562002356
:103530001A4670212046FFF737FF00231A467C21E8
:103540002046FFF731FF70BD0064004048140020A2
:10355000006800407414002020B940F21131054A7F
:1035600012685163012804D140F2E241014A126815
:1035700051637047B017002020B940F20731054A67
:1035800012689163012803D1FA21024A12689163FB
:1035900070470000B017002020B940F24741054AAB
:1035A0001268D163012804D140F2EE21014A126869
:1035B000D1637047B017002010B50446224602219F
:1035C0000148FDF723FE10BD0018024010B5044667
:1035D000224604210148FDF719FE10BD00180240E3
:1035E00010B50446224608210148FDF70FFE10BD24
:1035F0000018024010B50446224610210148FDF78C
:1036000005FE10BD0018024010B5044622462021D8
:103610000148FDF7FBFD10BD0018024010B504463F
:10362000224640210148FDF7F1FD10BD001802407F
:1036300010B50446224680210148FDF7E7FD10BD84
:103640000018024010B5044622464FF4807102482B
:10365000FDF7DCFD10BD00000018024010B5044667
:1036600022464FF480410248FDF7D0FD10BD000016
:103670000014024010B5044622464FF4006102488F
:10368000FDF7C4FD10BD0000001002402DE9F84315
:103690000446206800F12005287800F00F00A17989
:1036A00001F00F01884201D0BDE8F8836946681C2B
:1036B000FFF7B1FEE8780001297940EA211768791F
:1036C000297901F00F0140EA01282878000984F8DF
:1036D0002C00BDF80010606C0E1A16F5004F03DACE
:1036E000E06C401CE06405E0B6F5004F02DDE06CE4
:1036F000401EE0644C20005BBDF8001001EB004070
:10370000A0F5FE40FF38A06494ED120AF8EEC00A5E
:103710009FED221A80EE810AD4ED020A20EE200AE3
:10372000F0EE000A20EE200A84ED0C0A94ED030A64
:10373000F0EE400A9FED1A0A40F6FF72511038462B
:10374000FFF76DFC84ED0D0A94ED040AF0EE400ADB
:103750009FED130A40F6FF7251104046FFF75FFCE1
:1037600084ED0E0AA87900EE100AB8EE400ADFEDEB
:103770000D0A30EE200A84ED0F0AE87900EE100AF7
:10378000B8EE400ADFED070A30EE200A84ED100A99
:10379000BDF80010616400BF86E7000000FF7F47AE
:1037A000000000003393884310B50446E188226886
:1037B00008231068014AFFF7B5FA10BD0800002081
:1037C00080ED150A704780ED160A704770B5044603
:1037D0000D46A069401CA0612046FFF757FF70BD51
:1037E00010B50446E188226808231068014AFFF7F3
:1037F00099FA10BD0000002010B5044694F82C0082
:1038000001284BD194ED021AF0EE410A94ED021A10
:10381000B1EE411AB0EE410A04F1540000F05EFE30
:1038200094ED031AF0EE410A94ED031AB1EE411A39
:10383000B0EE410A04F1580000F050FE94ED041A75
:10384000F0EE410A94ED041AB1EE411AB0EE410ACD
:1038500004F15C0000F042FE94ED051AF0EE410A1E
:1038600094ED051AB1EE411AB0EE410A04F1600080
:1038700000F034FEDFED0F0A9FED0F0A04F1640043
:1038800000F02CFEF1EE040A9FED0B0A04F1680033
:1038900000F024FE204600F061F809E094F82C00C6
:1038A00018B92046FFF780FF02E02046FFF798FF97
:1038B00010BD00000000FA430000000010B50446EF
:1038C000D4E90601884203D1002084F8280002E0F0
:1038D000012084F82800A069E06194F8280010B95C
:1038E0002046FFF761FF10BD70B5049C174E0D68B0
:1038F000B54202D1164D056005E0164E0D68B54281
:1039000001D1154D0560828034B1012C06D0022C06
:1039100008D0032C0ED109E0C3800BE003F58075BD
:10392000C58007E003F50075C58003E003F5407529
:10393000C58000BF00BF80F8504080ED020AC0ED96
:10394000030A80ED041AC0ED051A70BD0064004042
:103950004814002000680040741400202DE9F8434A
:10396000044694F8500030B1012878D0022875D070
:10397000032871D18DE004F12005D4ED020AB0EEE8
:10398000601AD4ED150AB0EE600A4FF6FF714810C8
:10399000DFED540AFFF72AFB80B20090D4ED030A52
:1039A000B0EE601AD4ED160AB0EE600A40F6FF7170
:1039B0004810DFED4C0AFFF719FB86B2D4ED040A7C
:1039C000B0EE601AD4ED170AB0EE600A40F6FF714F
:1039D0004810DFED440AFFF709FB87B2D4ED190A5E
:1039E000B0EE600A40F6FF7100209FED3F1ADFED58
:1039F0003D0AFFF7FBFA1FFA80F8D4ED1A0AB0EE81
:103A0000600A40F6FF710020B1EE041ADFED350ABE
:103A1000FFF7ECFA1FFA80F900216846FFF7FBFC7C
:103A20002880C6F30710A8703007000E40EA28204F
:103A3000E87085F80480C9F3071068714FEA0970CF
:103A4000000E40EA2720A871EF71E1882268082360
:103A500010682A46FFF766F941E000E00DE004F146
:103A60002005606D2860A06D6860E18822680823E9
:103A700010682A46FFF756F931E004F12005A06DE1
:103A80002860E1882268042310682A46FFF74AF973
:103A900025E004F12005606D286094ED160ADFED45
:103AA000130A20EE200ABCEEC00A10EE100AA8800D
:103AB000D4ED180A94ED051A80EE810ADFED0C0AA8
:103AC00020EE200ABCEEC00A10EE100AE880E18861
:103AD0002268082310682A46FFF724F900BF00BFB8
:103AE000BDE8F883000000000000FA430000C8426F
:103AF00000401C4600218161C16180F8281080F8D7
:103B000050109FED0C0A80ED150A9FED0A0A80ED1A
:103B1000160A9FED080A80ED170A9FED060A80ED50
:103B2000180A9FED040A80ED190A9FED020A80ED44
:103B30001A0A70470000000030B50468246824F4B5
:103B4000802405682C60046863608468402C04D17C
:103B50000468A2600468E16003E00468A16004688E
:103B6000E26030BD30B5056A25F001050562026AE4
:103B70004368846924F0700424F003040D682C4326
:103B800022F002028D682A43104DA84200D103E0C2
:103B90000F4DA84206D100BF22F00802CD682A438B
:103BA00022F00402094DA84202D0094DA84207D1D3
:103BB00023F4807323F400734D692B438D692B43E9
:103BC000436084614D684563026230BD000001407E
:103BD0000004014030B5056A25F480750562026A6B
:103BE0004368C46924F0700424F003040D682C4376
:103BF00022F400728D6842EA0522124DA84200D1DB
:103C000003E0114DA84207D100BF22F40062CD6845
:103C100042EA052222F480620A4DA84202D00A4DEF
:103C2000A84209D123F4805323F400534D6943EA99
:103C300005138D6943EA05134360C4614D68C5638C
:103C4000026230BD000001400004014030B5056A49
:103C500025F480550562036A4468C26922F4E04293
:103C600022F440720D6842EA052223F400538D6865
:103C700043EA0533084DA84202D0084DA84204D1BA
:103C800024F480444D6944EA85144460C2614D685F
:103C90000564036230BD00000000014000040140E3
:103CA0000A46816821F0700142F0070319438160E0
:103CB000704730B50B461446026A056A25F00105C7
:103CC0000562816921F0F00141EA041122F00A0243
:103CD0001A438161026230BD30B50B461446056A55
:103CE00025F0100505628169026A21F4704141EAFC
:103CF000043122F0A00242EA03128161026230BD67
:103D000070B506460025B46B20684069C0F3C01545
:103D100094F84100212805D125B10020E0842046F7
:103D200000F022FA20684069C0F3801594F8420040
:103D3000222805D125B10020E085204600F0DEF9DB
:103D4000606C40F0100060642046FEF7C7FA70BD5A
:103D50002DE9F84F04462068006920F44050E168DE
:103D60000843216808612169A06808436169084324
:103D7000E169084300902068C06849F20C618843FB
:103D8000009908432168C8602068406920F44070A9
:103D9000A16908432168486176492068884203D0B8
:103DA00075492068884203D1FDF734FC814602E062
:103DB000FDF720FC8146E069B0F5004F6CD1022090
:103DC0006168A0FB015003461920A9FB0070014661
:103DD0002A463846FCF77CFA6421B0FBF1F04FEA42
:103DE000001A02206168A0FB01510B461920A9FBB3
:103DF00000712A463846FCF76BFA83460220616858
:103E0000A0FB015003461920A9FB00712A46384641
:103E1000FCF75EFA6421B0FBF1F000EBC00101EBAE
:103E20000010ABEB8000322101EBC0006421B0FB3D
:103E3000F1F000F0F8000AEB400A02206168A0FBF4
:103E4000015003461920A9FB007001462A46384656
:103E5000FCF73EFA834602206168A0FB015003464E
:103E60001920A9FB00712A463846FCF731FA642173
:103E7000B0FBF1F000EBC00101EB0010ABEB8000F8
:103E8000322101EBC0006421B0FBF1F000F007002B
:103E90005044216888606AE004206168A0FB0150FA
:103EA00003461920A9FB007001462A463846FCF754
:103EB0000FFA824604206168A0FB015003461920D6
:103EC000A9FB007001462A463846FCF701FA642136
:103ED000B0FBF1F000EBC00101EB0010AAEB800099
:103EE000322101EB00106421B0FBF1F000F0F00A88
:103EF00004206168A0FB017003461920A9FB005152
:103F00003A462846FCF7E4F96421B0FBF1F00AEBED
:103F1000001A04206168A0FB01510B461920A9FB7F
:103F200000712A463846FCF7D3F9834604206168BD
:103F3000A0FB015003461920A9FB007001462A4648
:103F40003846FCF7C5F96421B0FBF1F000EBC00185
:103F500001EB0010ABEB8000322101EB001064217B
:103F6000B0FBF1F000F00F00504421688860BDE81C
:103F7000F88F00000010014000140140F8B504461D
:103F800094F84200222875D1A068B0F5805F0CD16A
:103F9000206950B90025A66A20684068C0F308006F
:103FA0003080A06A801CA06215E0A56A0026A06887
:103FB000B0F5805F03D0A06828B9206918B92068DF
:103FC0004068287004E02068406800F07F00287096
:103FD000A06A401CA062E08D401E80B2E0850028EF
:103FE00046D12068C06820F020002168C8602068A1
:103FF000C06820F480702168C8602068406920F0A3
:10400000010021684861202084F84200002060639C
:10401000206B012826D10020206300BF00BF21684B
:104020000C3151E8001F21F0100021680C3141E8EB
:104030000002002AF3D100BF2068006800F01000E1
:1040400010280AD100BF002000902068006800906E
:1040500020684068009000BF00BFA18D2046FEF799
:1040600079F802E02046FEF74DFB0020F8BD01E0A4
:104070000020FBE70220F9E7014691F841002128E2
:1040800028D18868B0F5805F0BD1086948B90A6A01
:104090001088C0F308000B685860086A801C08622A
:1040A00005E00B6A581C086218780B685860C88CC9
:1040B000401E80B2C88458B90868C06820F08000EB
:1040C0000B68D8600868C06840F040000B68D86092
:1040D000002070470220FCE770B50546AC6B01205C
:1040E0006063206B012805D1A08D41082046FEF7B2
:1040F00031F802E02046FEF761FB70BD00BF00BF53
:1041000002680C3252E8002F22F4907102680C32DF
:1041100042E80013002BF3D100BF00BF00BF0268CC
:10412000143252E8002F22F001010268143242E8F2
:104130000013002BF3D100BF016B01290ED100BF8A
:1041400000BF02680C3252E8002F22F01001026812
:104150000C3242E80013002BF3D100BF202180F87D
:10416000421000210163704700BF00BF02680C329B
:1041700052E8002F22F0C00102680C3242E800131E
:10418000002BF3D100BF202180F84110704770B59B
:104190000546AC6B2868006800F48070002842D1A6
:1041A000E08500BF00BF21680C3151E8001F21F4F9
:1041B000807021680C3141E80002002AF3D100BF71
:1041C00000BF00BF2168143151E8001F21F0010039
:1041D0002168143141E80002002AF3D100BF00BF7A
:1041E00000BF2168143151E8001F21F04000216810
:1041F000143141E80002002AF3D100BF202084F8E6
:104200004200206B01280ED100BF00BF21680C3195
:1042100051E8001F21F0100021680C3141E8000234
:10422000002AF3D100BF00206063206B012804D175
:10423000A18D2046FDF78EFF02E02046FEF762FAD0
:1042400070BD10B504462068C06820F040002168A9
:10425000C860202084F841002046FEF7B0FA002014
:1042600010BD70B50546AC6B0020E085E0842046AB
:10427000FEF734F870BD000010B5002804DB0A0713
:10428000130E054A135406E00A07140E034A00F001
:104290000F031B1FD45410BD00E400E018ED00E034
:1042A00002480068C0F30220704700000CED00E0F7
:1042B00010B50D48002180F8401080F841109FEDA6
:1042C0000B0A80ED110A0A48FFF714FC0948FFF7B2
:1042D00011FC0948FFF70EFC0848FFF70BFC0848E3
:1042E000FFF708FC10BD0000A01400200000000033
:1042F000E814002054150020C01500202C160020C2
:104300009816002008B5FCF799FFFEF7B9FFFEF7F5
:104310009FFAFEF779FAFEF755FAFEF755FBFEF71E
:10432000F1FA012258495948FEF7D6F908B1FCF7CD
:10433000D0F800215648FDF74DFE04215448FDF702
:1043400049FE08215248FDF745FE40F21130504920
:104350000968486340F207304D490968886340F2B4
:1043600047404B490968C863DFED4A0A9FED490A97
:104370000F20FFF761F848494848FFF7ABF80120E4
:10438000DFED471AB2EE041AF3EE090AB2EE090A9B
:1043900002230246414900904248FFF7A5FA012056
:1043A000DFED3F1AB2EE041AF3EE090AB2EE090A83
:1043B00004230322394900903B48FFF795FA012076
:1043C000DFED371AB2EE041AF3EE090AB2EE090A6B
:1043D00006230522314900903448FFF785FA012071
:1043E000DFED2F1AB2EE041AF3EE090AB2EE090A53
:1043F00008230722294900902D48FFF775FA01206C
:10440000DFED271AB2EE041AF3EE090AB2EE090A3A
:1044100010230922214900902648FFF765FA31E070
:104420002548007870B92548407825490870234808
:104430008078244908702148C078234908700120F9
:10444000224908701E48007800280ADB1C480078C2
:104450000B2806DC01201849087019480078FEF77F
:1044600075FC17480078642809D11948FEF78EFDBD
:104470001748FEF7A3FD17491748FEF7E9FD00208E
:10448000FCF7A8FDCCE70000D00100206817002051
:10449000B0170020000000003D3300084017002046
:1044A000DA2D2441E814002054150020C015002006
:1044B0002C16002098160020DA010020D1010020DF
:1044C000B6010020CF010020B7010020CC01002060
:1044D000DC010020B801002004170020B0EE401AD3
:1044E00090ED000AB4EEC10AF1EE10FA02D280EDAE
:1044F000001A08E090ED000AB4EEE00AF1EE10FABE
:1045000001DDC0ED000A90ED000A70474FF04070E9
:10451000E1EE100A704700000000000000000102F8
:10452000030406070809000000000102030400005C
:104530005445000800000020E8030000E8010008DE
:10454000D4460008E803002070340000440200084C
:1045500061FDFFFF4AFF015AFB085AFC085AFD089B
:1045600042FE0362706F0A6169640A6164640A61F1
:10457000666419CAEE01DB0F493F04591CB3646439
:1045800038107368D13FCDCC4C3E2B87163E7593C7
:10459000E80C292C32013814E17A04403D0A573ED8
:1045A0009A99593FAE47C13F295C0F1C3202180C43
:1045B000F6289C3F5C8F023F52B85E042FBE3F8FAF
:1045C000C2F53D1C320378108FC215401F856B3E2B
:1045D0006666263F3333B31C3A041C2B753F1C38E8
:1045E0000CD7A3303FC3F5A83F0AD7231C3A055484
:1045F0002AFCA419042B803E0C698C32063C7B14E7
:10460000CE1C7808AE47613E48E1FA1C32072C14F4
:10461000AEA764BD3EB81E851C32082CD7A3F0B8E7
:104620001D3FF628DC743EF03F6666E61C3A09E062
:104630001ED43F14AE07042FC73EE17AF43F402951
:104640001C3A0AA81EB53F713D0A4C3ACC1C69546D
:10465000320B1C713DEA503A1C5829541974391C0C
:10466000320C180885EBD13F9A991930380A0C3F63
:1046700085EBF13FE17A941C320D3CEC51B8381CCB
:1046800085EB11202AECB42A3C1C320E1808AE47E8
:10469000E13F7B142EE4380A403F5C8FE23F0AD7AB
:1046A000A3383A0FC41AD0681A30A02A45C83D3F33
:1046B000EC51381C3210BC48E1BA38691C5A118CD4
:1046C00029B82C5C8F425079C481294042011324BF
:0446D000F4000000F2
:04000005080001AD41
:00000001FF
